:020000040800F2
:1000000000000120A5180008CD170008D31700082C
:10001000D9170008DF170008E517000800000000E6
:10002000000000000000000000000000EB170008C6
:10003000F717000800000000031800080F18000858
:10004000ED180008ED180008ED180008ED1800087C
:10005000ED180008ED180008ED180008ED1800086C
:10006000ED180008ED180008ED180008ED1800085C
:10007000ED180008ED180008ED180008ED1800084C
:10008000ED180008ED180008ED180008ED1800083C
:10009000ED180008ED180008ED1800081B180008FE
:1000A000ED180008ED180008ED180008ED1800081C
:1000B000ED180008ED180008ED180008ED1800080C
:1000C000ED180008ED180008ED180008ED180008FC
:1000D000ED180008ED180008ED180008ED180008EC
:1000E000ED180008ED180008ED180008ED180008DC
:1000F000ED180008ED180008ED180008ED180008CC
:10010000ED180008ED180008ED180008ED180008BB
:10011000ED180008ED180008ED180008ED180008AB
:10012000ED180008ED180008ED180008ED1800089B
:1001300000000000000000000000000000000000BF
:1001400000000000000000000000000000000000AF
:10015000000000000000000000000000000000009F
:10016000000000000000000000000000000000008F
:10017000000000000000000000000000000000007F
:10018000000000000000000000000000000000006F
:10019000000000000000000000000000000000005F
:1001A000000000000000000000000000000000004F
:1001B000000000000000000000000000000000003F
:1001C000000000000000000000000000000000002F
:1001D000000000000000000000000000000000001F
:0401E0005FF8E0F1F3
:1001E40010B5054C237833B9044B13B10448AFF36D
:1001F40000800123237010BD2401002000000000B2
:100204002C62000808B5034B1BB103490348AFF344
:10021400008008BD00000000280100202C620008B6
:10022400034613F8012B002AFBD1181A0138704732
:1002340080B400AF00BFBD4680BC704790B587B0A6
:1002440002AF0346FB80FB88B3F5807F40F0AD80AE
:10025400574B1B78002B40F0A780564B1B78002B84
:1002640040F0A28003F08AFC0346002B00F09D803E
:100274004F4B01221A705049504803F097FC504BE1
:100284001B78002B60D04D4B1B884B4A12881146BB
:10029400184603F06DFA0346FB73FB7B002B53D027
:1002A400FB7B184603F066F9FB7B013B052B4CD81E
:1002B40001A252F823F000BFD5020008250300086C
:1002C4002D030008350300083D030008450300081A
:1002D40002F0A0FF0346023B9BB21CB202F0A4FF53
:1002E4000346023B9BB21BB20022009222461A2113
:1002F400012002F0F3FA02F08DFF0346023B9BB2A9
:100304001CB202F091FF0346023B9BB21BB24FF6B4
:10031400FF72009222461A21012001F03BFF14E0F3
:10032400274B00221A7010E0254B00221A700CE0B3
:10033400234B00221A7008E0214B00221A7004E0BB
:100344001F4B00221A7000E000BF1E4B1B78012BCC
:1003540026D11A4B1B88012B22D9184B1B881C460B
:1003640002F058FF0346013B9C4219DA124B1B88EA
:100374001A2B15D9104B1B881C4602F055FF034657
:10038400013B9C420CDA0D4B1B8818B20A4B1B88AC
:1003940019B20D4B1B781AB24AF6E57302F0C6F98E
:1003A400034B00221A7000E000BF1437BD4690BD15
:1003B40040010020BA020020440100204201002034
:1003C400B8020020B90200200000002080B500AF70
:1003D400514B00221A70514B00221A70002001F078
:1003E40057FD022002F036FE4D4B01221A70022105
:1003F4004C4803F009FA03E002214B4803F004FAE5
:1004040003F086FC034683F00103DBB2002BF3D137
:10041400434B00221A700221444803F0F5F93F4B84
:1004240001221A70002003F0A5F83B4B1B78013B16
:10043400052BFAD801A252F823F000BF2F040008BC
:100444005904000879040008B7040008D904000816
:10045400FB040008364B01221A70062000F06AF8EB
:10046400002003F087F8324B00221A702B4B012234
:100474001A7050E02E4B01221A70002001F008FD82
:1004840002F0DCFE034601335A4203F0030302F098
:10049400030258BF5342DBB2184602F0DBFD0020D2
:1004A40003F068F8224B00221A701C4B01221A70C8
:1004B40031E01F4B01221A704FF4784001F0E8FC40
:1004C400002003F057F81A4B00221A70134B012234
:1004D4001A7020E0164B01221A704FF4FC6001F0F0
:1004E400D7FC002003F046F8114B00221A700B4B86
:1004F40001221A700FE00E4B01221A701F2001F026
:10050400C7FC002003F036F8094B00221A70034B95
:1005140001221A7000BF88E7B9020020B802002047
:10052400BA02002044620008586200087862000899
:100534004001002090B585B000AF78607B685A42D6
:1005440003F0030302F0030258BF5342DBB2184620
:1005540002F080FD00F00EFAF860DD4802F056FD6E
:1005640002F062FE03461C4602F072FE0346DB887C
:10057400E31A9BB2013B9BB21946002002F0D8FD5E
:1005840000214FF6FF7002F04FFDF968D14802F0E8
:10059400B1FC4FF4FA6003F09DFD03F091FDF860A7
:1005A40001F0D4FBCA4802F031FD02F03DFE0346DF
:1005B4001C4602F04DFE0346DB88E31A9BB2013B66
:1005C4009BB21946002002F0B3FD00214FF6FF70E4
:1005D40002F02AFD03F074FD0246FB68D31A1946A3
:1005E400BC4802F087FC4FF4FA6003F073FD00F09E
:1005F40069FAF860B64802F009FD02F015FE0346F8
:100604001C4602F025FE0346DB88E31A9BB2013B3D
:100614009BB21946002002F08BFD00214FF6FF70BB
:1006240002F002FDF968AB4802F064FC4FF4FA6092
:1006340003F050FDA64802F0E9FC02F0F5FD034684
:100644001C4602F005FE0346DB88E31A9BB2013B1D
:100654009BB21946002002F06BFD00214FF6FF709B
:1006640002F0E2FC40F2FF7000F0B8FA03461946CB
:10067400984802F03FFC4FF4FA6003F02BFD9448D5
:1006840002F0C4FC02F0D0FD03461C4602F0E0FD7B
:100694000346DB88E31A9BB2013B9BB21946002058
:1006A40002F046FD00214FF6FF7002F0BDFC1F2151
:1006B4004FF4784000F0C6FB03461946854802F023
:1006C40019FC4FF4FA6003F005FD814802F09EFC2A
:1006D40002F0AAFD03461C4602F0BAFD0346DB887D
:1006E400E31A9BB2013B9BB21946002002F020FDA5
:1006F40000214FF6FF7002F097FC4FF4FC6000F00D
:10070400E4FB03461946734802F0F4FB4FF4FA6025
:1007140003F0E0FC6E4802F079FC02F085FD03462C
:100724001C4602F095FD0346DB88E31A9BB2013BAD
:100734009BB21946002002F0FBFC00214FF6FF702B
:1007440002F072FC4FF61F014FF6E07000F014FC4B
:10075400034619465F4802F0CDFB4FF4FA6003F0FC
:10076400B9FC5B4802F052FC02F05EFD03461C46F5
:1007740002F06EFD0346DB88E31A9BB2013B9BB299
:100784001946002002F0D4FC00214FF6FF7002F05D
:100794004BFC4FF61F010A2000F066FC0346194685
:1007A4004C4802F0A7FB4FF4FA6003F093FC48486E
:1007B40002F02CFC02F038FD03461C4602F048FD12
:1007C4000346DB88E31A9BB2013B9BB21946002027
:1007D40002F0AEFC00214FF6FF7002F025FC4FF64C
:1007E400FF710A2000F081FC03461946394802F0E3
:1007F40081FB4FF4FA6003F06DFC354802F006FC0F
:1008040002F012FD03461C4602F022FD0346DB887B
:10081400E31A9BB2013B9BB21946002002F088FC0C
:1008240000214FF6FF7002F0FFFB00F0A2FC03462C
:100834001946284802F05EFB4FF4FA6003F04AFCC4
:10084400234802F0E3FB02F0EFFC03461C4602F0EF
:10085400FFFC0346DB88E31A9BB2013B9BB21946BB
:10086400002002F065FC00214FF6FF7002F0DCFB73
:1008740000F0ECFC03461946164802F03BFB4FF42B
:10088400FA6003F027FC124802F0C0FB02F0CCFC33
:1008940003461C4602F0DCFC0346DB88E31A9BB2E9
:1008A400013B9BB21946002002F042FC00214FF6A6
:1008B400FF7002F0B9FB00F087FD034619460548B6
:1008C40002F018FB4FF4FA6003F004FC04E000BFEC
:1008D4001000002090620008244802F097FB02F008
:1008E400A3FC03461C4602F0B3FC0346DB88E31A70
:1008F4009BB2013B9BB21946002002F019FC002177
:100904004FF6FF7002F090FB00F0BFFD034619465E
:10091400174802F0EFFA4FF4FA6003F0DBFB1348D8
:1009240002F074FB02F080FC03461C4602F090FCCB
:100934000346DB88E31A9BB2013B9BB219460020B5
:1009440002F0F6FB00214FF6FF7002F06DFB00F0A1
:1009540005FE03461946064802F0CCFA4FF4FA6045
:1009640003F0B8FB00BF1437BD4690BD1000002053
:100974009062000880B582B000AF03F0A1FB7860FC
:1009840000233B60002001F083FA03F099FB024648
:100994007B68D31A3A6813443B600021002002F0BC
:1009A400C7FB434802F032FB00214FF6FF7002F010
:1009B4003BFB404802F09EFA4FF47A7003F08AFB46
:1009C40003F07EFB78604FF4784001F061FA03F0A5
:1009D40077FB02467B68D31A3A6813443B600021D4
:1009E400002002F0A5FB324802F010FB00214FF674
:1009F400FF7002F019FB304802F07CFA4FF47A7071
:100A040003F068FB03F05CFB78604FF4FC6001F0DA
:100A14003FFA03F055FB02467B68D31A3A68134445
:100A24003B600021002002F083FB214802F0EEFA33
:100A340000214FF6FF7002F0F7FA204802F05AFA4C
:100A44004FF47A7003F046FB03F03AFB78601F2002
:100A540001F01EFA03F034FB02467B68D31A3A68AD
:100A640013443B600021002002F062FB104802F0B6
:100A7400CDFA00214FF6FF7002F0D6FA104802F0CA
:100A840039FA4FF47A7003F025FB03F019FB786010
:100A9400002001F0FDF903F013FB02467B68D31A32
:100AA4003A6813443B603B6818460837BD4680BD2E
:100AB40020000020A0620008A8620008AC620008C0
:100AC400B462000880B582B000AF002001F0E0F904
:100AD40003F0F6FA78600021002002F029FB0021DF
:100AE4004FF6FF7002F0A0FA294802F08FFA294865
:100AF40002F000FA00214FF6E07002F095FA264861
:100B040002F084FA2549264802F0F4F900214FF452
:100B1400784002F089FA234802F078FA22492348FF
:100B240002F0E8F9224802F0E5F900214FF4FC60F4
:100B340002F07AFA1F4802F069FA1F4802F0DAF963
:100B4400154802F063FA1D4802F0D4F9124802F085
:100B54005DFA1B4802F0CEF91A4802F0CBF91A48A4
:100B640002F0C8F9194802F0C5F9194802F0C2F9AF
:100B7400184802F0BFF9184802F0BCF903F0A0FAD3
:100B840002467B68D31A18460837BD4680BD00BFAD
:100B940028000020BC62000808000020D202964908
:100BA400CC62000810000020EFBEADDED462000865
:100BB400DC62000818000020E0620008E862000817
:100BC400FC6200081C6300083C6300085C630008C6
:100BD400746300088C630008A863000890B58DB0A6
:100BE40002AF0346FB8002F015FB0346FB6102F0F3
:100BF4001BFB0346BB61002001F04AF900237B6123
:100C04007B693B61BB69013B3B6203F059FAF860C5
:100C140000237B620FE03B6918B27B6919B27B6ADF
:100C24001AB23B6A1CB2FB880093234601F014FA03
:100C34007B6A06337B627A6AFB699A42EBDBFB6967
:100C4400013B7B6200233B620FE03B6918B27B6986
:100C540019B27B6A1AB23B6A1CB2FB880093234622
:100C640001F0FAF93B6A06333B623A6ABB699A427D
:100C7400EBDB03F025FA0246FB68D31ABB604FF4A2
:100C84007A7003F027FA002001F002F9FB69013BB6
:100C94003B6100237B61BB69013B3B6203F010FABB
:100CA400F86000237B620FE03B6918B27B6919B2DC
:100CB4007B6A1AB23B6A1CB2FB880093234601F09C
:100CC400CBF97B6A06337B627A6AFB699A42EBDB77
:100CD40000237B6200233B620FE03B6918B27B690F
:100CE40019B27B6A1AB23B6A1CB2FB880093234692
:100CF40001F0B2F93B6A06333B623A6ABB699A4235
:100D0400EBDB03F0DDF90246FB68D31ABA6813443F
:100D1400BB604FF47A7003F0DDF9002001F0B8F8FD
:100D240000233B61BB69013B7B6100233B6203F011
:100D3400C7F9F86000237B620FE03B6918B27B6956
:100D440019B27B6A1AB23B6A1CB2FB880093234631
:100D540001F082F97B6A06337B627A6AFB699A4204
:100D6400EBDBFB69013B7B6200233B620FE03B69E9
:100D740018B27B6919B27B6A1AB23B6A1CB2FB884F
:100D84000093234601F068F93B6A06333B623A6AF2
:100D9400BB699A42EBDB03F093F90246FB68D31A72
:100DA400BA681344BB604FF47A7003F093F90020DF
:100DB40001F06EF8FB69013B3B61BB69013B7B6160
:100DC40000233B6203F07CF9F86000237B620FE0B0
:100DD4003B6918B27B6919B27B6A1AB23B6A1CB2CE
:100DE400FB880093234601F037F97B6A06337B6264
:100DF4007A6AFB699A42EBDB00237B6200233B6245
:100E04000FE03B6918B27B6919B27B6A1AB23B6A7C
:100E14001CB2FB880093234601F01EF93B6A06339B
:100E24003B623A6ABB699A42EBDB03F049F902463A
:100E3400FB68D31ABA681344BB60BB6818462C37E6
:100E4400BD4690BD80B588B000AF03460A46FB801E
:100E54001346BB8002F0DEF903467B6102F0E4F93D
:100E640003463B61002001F013F803F029F9F86010
:100E74000023BB610AE07B6999B2BB699AB2FB8823
:100E8400002001F053F8BB690533BB61BA693B69C3
:100E94009A42F0DB0023FB610AE0FB6998B23B69EC
:100EA4009AB2BB88002101F087F8FB690533FB6126
:100EB400FA697B699A42F0DB03F002F90246FB68A7
:100EC400D31A18462037BD4680BD90B58BB002AF0B
:100ED4000346FB8002F09EF903465B089BB2BB61AC
:100EE40002F0A2F903465B089BB27B61002000F08C
:100EF400CFFF02F08FF903461C4602F095F9034632
:100F04009C4203D202F086F9034602E002F08CF917
:100F140003463B6103F0D4F8F8600223FB611EE052
:100F2400FB69DA0F13445B10BB60BB699AB2BB6800
:100F34009BB2D31A9BB218B27B699AB2BB689BB2BC
:100F4400D31A9BB219B2FB691AB2FB691CB2FB88B3
:100F54000093234601F01EF9FB690633FB61FA692D
:100F64003B699A42DCDB03F0ABF80246FB68D31A18
:100F740018462437BD4690BD90B58DB002AF0346E8
:100F84000A46FB801346BB8000237B6202F042F9D1
:100F940003465B089BB2013BFB6102F045F9034643
:100FA4005B089BB2013BBB61002000F071FF02F0C3
:100FB40031F903461C4602F037F903469C4203D23A
:100FC40002F028F9034602E002F02EF903467B61A1
:100FD4007B693B6240E03B6ADA0F13445B103B6180
:100FE40003F06EF8F860FB699AB23B699BB2D31ABE
:100FF4009BB218B2BB699AB23B699BB2D31A9BB23B
:1010040019B23B6A1AB23B6A1CB2FB8800932346AE
:1010140001F064FC03F054F80246FB68D31A7A6AC0
:1010240013447B62FB699AB23B699BB2D31A9BB2AD
:1010340018B2BB699AB23B699BB2D31A9BB219B27C
:101044003B6A1AB23B6A1CB2FB880093234601F048
:10105400A1F83B6A063B3B623B6A002BBBDC7B6A24
:1010640018462C37BD4690BD80B588B000AF034606
:101074000A46FB711346BB8002F0CCF803467B6141
:1010840002F0D2F803463B61FB795B00FB60002071
:1010940000F0FEFE03F014F8B860FB79FB6117E082
:1010A400FB79BB610CE0FB6918B2BB6919B2FB792F
:1010B4001AB2BB8801F03AFBBA69FB681344BB61FE
:1010C400BA693B699A42EEDBFA69FB681344FB6137
:1010D400FA697B699A42E3DB02F0F2FF0246BB68DD
:1010E400D31A18462037BD4680BD80B588B000AFFE
:1010F40003460A46FB711346BB80FB795B007B61A8
:1011040002F088F803461A46FB7913443B6102F067
:101114008BF803461A46FB791344FB6002F0D0FFB8
:10112400B8600023FB6117E00023BB610CE0FB699E
:1011340018B2BB6919B2FB791AB2BB8801F0E8F99D
:10114400BA697B691344BB61BA69FB689A42EEDBF6
:10115400FA697B691344FB61FA693B699A42E3DBF0
:1011640002F0AEFF0246BB68D31A18462037BD46CC
:1011740080BD2DE9F0478AB004AF02F04BF8034676
:101184005B089BB2013B3B6102F04EF803465B08EF
:101194009BB2013BFB60002000F07AFEFA683B69D9
:1011A4009342A8BF1346BB6002F08AFF7860002315
:1011B4007B613DE03B691EB2FB689AB27B699BB2DE
:1011C400D31A9BB20FFA83F83B699AB27B699BB23C
:1011D400D31A9BB20FFA83F9FB689AB27B699BB26C
:1011E40013449BB20FFA83FA3B699AB27B699BB2B0
:1011F40013449BB21CB2FB689AB27B699BB2134442
:101204009BB21DB27B69DBB27A69D1B27A69D2B280
:10121400184602F07DF80346029301950094534664
:101224004A464146304601F047FA7B6905337B6103
:101234007A69BB689A42BDDB02F042FF02467B68D2
:10124400D31A18461837BD46BDE8F0872DE9F04794
:101254008AB004AF00237B6101F0DCFF03465B0826
:101264009BB2013BFB6001F0DFFF03465B089BB2CE
:10127400013BBB60002000F00BFEBA68FB689342A0
:10128400A8BF13463B6195E002F01AFF7860FB6843
:101294001EB2BB689AB23B699BB2D31A9BB20FFAD7
:1012A40083F8FB689AB23B699BB2D31A9BB20FFADC
:1012B40083F9BB689AB23B699BB213449BB20FFAA1
:1012C40083FAFB689AB23B699BB213449BB21CB28B
:1012D400BB689AB23B699BB213449BB21DB23B6993
:1012E400DBB21A46920013445B00D9B23B69DBB20D
:1012F4001A46920013445B00DBB21A46002002F047
:1013040007F8034602930195009453464A46414622
:10131400304601F0A4FB02F0D3FE02467B68D31AE8
:101324007A6913447B61FB681EB2BB689AB23B695D
:101334009BB2D31A9BB20FFA83F8FB689AB23B694B
:101344009BB2D31A9BB20FFA83F9BB689AB23B697A
:101354009BB213449BB20FFA83FAFB689AB23B69BF
:101364009BB213449BB21CB2BB689AB23B699BB25A
:1013740013449BB21DB23B69DBB21A46920013447C
:101384005B00D8B23B69DBB21A46920013445B009F
:10139400DBB20022194601F0BBFF0346029301951C
:1013A400009453464A464146304601F058FB3B6997
:1013B400053B3B613B690A2B3FF766AF7B691846E7
:1013C4001837BD46BDE8F0872DE9F04389B002AF78
:1013D40001F020FF03465B089BB2013B3B6101F037
:1013E40023FF03465B089BB2013BFB60002000F037
:1013F4004FFD01F00FFF0346BB6001F015FF02F043
:101404005FFE786000237B6131E07B69DA0F13446F
:101414005B103B603B699AB23B689BB2D31A9BB2A8
:101424001DB2FB689AB23B689BB2D31A9BB21EB240
:101434007B690FFA83F87B690FFA83F97B69002BC8
:1014440000DA0733DB101CB27B69DBB20022002117
:10145400184601F05DFF0346019300944B46424653
:101464003146284600F0DFFE7B6906337B617A69EA
:10147400BB689A42C9DB02F023FE02467B68D31A9A
:1014840018461C37BD46BDE8F0832DE9F04389B00A
:1014940002AF01F0BFFE03465B089BB2013B3B6118
:1014A40001F0C2FE03465B089BB2013BFB600020D7
:1014B40000F0EEFC02F004FEB86001F0ABFE03465F
:1014C4001C4601F0B1FE03469C4203D201F0A2FE89
:1014D400034602E001F0A8FE03467B6131E07B692C
:1014E400DA0F13445B107B603B699AB27B689BB252
:1014F400D31A9BB21DB2FB689AB27B689BB2D31A13
:101504009BB21EB27B690FFA83F87B690FFA83F9E9
:101514007B69002B00DA0733DB101CB27B69DBB27A
:1015240000221946002001F0F3FE034601930094C3
:101534004B4642463146284601F02CFA7B69063B6D
:101544007B617B69142BCADC02F0BAFD0246BB68DE
:10155400D31A18461C37BD46BDE8F08380B582B067
:1015640000AF002000F094FC02F0AAFD786001F0C6
:1015740065FE0346012B04D001F060FE0346032BF5
:1015840010D101F047FE03461A46134B1B88D31AA9
:10159400DA0F13445B109BB20F4A0021184601F086
:1015A400ABFB0FE001F040FE03461A460A4B5B8892
:1015B400D31ADA0F13445B109BB2074A1946002072
:1015C40001F09AFB02F07CFD02467B68D31A1846B0
:1015D4000837BD4680BD00BFD862020880B58AB016
:1015E40000AF02F015FD00F073F807F118030022B4
:1015F4001A605A609A60DA60314B9B69304A43F052
:10160400100393612E4B9B6903F010037B617B698C
:101614002B4B9B692A4A43F004039361284B9B6933
:1016240003F004033B613B69254B9B69244A43F067
:1016340008039361224B9B6903F00803FB60FB687A
:101644001F4B9B691E4A43F0400393611C4B9B69EB
:1016540003F04003BB60BB68194B9B69184A43F015
:1016640020039361164B9B6903F020037B607B6826
:1016740041F20103BB610123FB6101233B620223AD
:101684007B6207F1180319460E4802F055FE4FF429
:101694008073BB610C4BFB6101233B6207F11803B0
:1016A40019460A4802F048FE00220021172002F0E1
:1016B4000CFE172002F025FE00BF2837BD4680BD72
:1016C40000100240000C01400000211000080140FD
:1016D40080B590B000AF07F1180328220021184606
:1016E40004F060F93B1D00221A605A609A60DA60C7
:1016F4001A610123BB614FF48033FB6100233B6219
:101704000123BB6202237B634FF48033BB634FF43A
:10171400E013FB6307F11803184602F0E9FF0346E0
:10172400002B01D000F019F80F237B600223BB606B
:101734000023FB604FF480633B6100237B613B1D0E
:101744000221184603F054FA0346002B01D000F09E
:1017540004F800BF4037BD4680BD80B400AF72B608
:1017640000BFFEE780B485B000AF154B9B69144AF7
:1017740043F001039361124B9B6903F00103BB60C7
:10178400BB680F4BDB690E4A43F08053D3610C4BAB
:10179400DB6903F080537B607B680A4B5B68FB600A
:1017A400FB6823F0E063FB60FB6843F00073FB60BD
:1017B400044AFB68536000BF1437BD4680BC7047C1
:1017C400001002400000014080B400AFFEE780B486
:1017D40000AFFEE780B400AFFEE780B400AFFEE7E1
:1017E40080B400AFFEE780B400AF00BFBD4680BC4C
:1017F400704780B400AF00BFBD4680BC704780B462
:1018040000AF00BFBD4680BC704780B500AF02F09A
:1018140045FC00BF80BD80B500AF4FF4807002F07E
:101824004FFF00BF80BD000080B586B000AF786078
:10183400144A154BD31A7B617B693B61134B1B68BC
:10184400002B02D1114B124A1A60104B1A687B68A4
:1018540013443A699A4207D204F06AF803460C2208
:101864001A604FF0FF3309E0084B1B68FB60074B1D
:101874001A687B681344054A1360FB6818461837D6
:10188400BD4680BD00000120000400004801002086
:101894001803002080B400AF00BFBD4680BC704771
:1018A400002103E00B4B5B58435004310A480B4BB7
:1018B40042189A42F6D30A4A02E0002342F8043B53
:1018C400084B9A42F9D3FFF7E5FF04F037F804F028
:1018D40023F8704728630208000000202401002038
:1018E4002401002018030020FEE7000080B588B022
:1018F40000AF3B1D00221A605A609A60DA601A61D8
:101904005A619A61284B4FF020421A60264B274AAD
:101914005A60254B00229A60234B0022DA60224B46
:1019240000221A61204B10225A611F4B00229A6137
:101934001D4B0022DA611C4B00221A621A4B002252
:101944005A62194B4FF480529A62174B0022DA62A2
:10195400154B00221A63144B00225A63124B0022C7
:101964009A630F237B600F23BB60FF23FB600F236D
:101974003B6110237B611123BB610023FB613B1D91
:1019840000221946084803F0A3FE0346002B01D0A9
:10199400FFF7E3FE064BDB69054A43F48063D3613A
:1019A40000BF2037BD4680BDBC020020040100A05A
:1019B4000000014080B586B000AF07F108030022A3
:1019C4001A605A609A60DA60184B1B68002B29D1A0
:1019D400164B01221A60164B5B69154A43F4807357
:1019E4005361134B5B6903F480737B607B684FF630
:1019F4008073BB600223FB6003237B6107F1080350
:101A040019460C4802F098FC4CF6B373BB600223F1
:101A1400FB6003237B6107F108031946064802F0C3
:101A24008BFC00E000BF1837BD4680BD4C01002090
:101A340000100240001801400014014080B582B03B
:101A440000AF7860FFF7B6FF00BF0837BD4680BD22
:101A540080B582B002AFFFF749FFB748FFF7EEFF4A
:101A6400002301930123009300230022012100207D
:101A740001F0D6FC03461A46B04B1A7000230193BA
:101A840001230093002301220021002001F0C8FC5F
:101A940003461A46AA4B1A700023019301230093AC
:101AA400002300220021012001F0BAFC03461A465B
:101AB400A44B1A70002301930123009300230122F5
:101AC4000121012001F0ACFC03461A469E4B1A701A
:101AD40001F070FC282001F077FCCF2001F074FCA9
:101AE400002001F081FC832001F07EFC302001F015
:101AF4007BFCED2001F068FC642001F075FC032000
:101B040001F072FC122001F06FFC812001F06CFCEA
:101B1400E82001F059FC852001F066FC012001F069
:101B240063FC792001F060FCCB2001F04DFC3920EE
:101B340001F05AFC2C2001F057FC002001F054FC69
:101B4400342001F051FC022001F04EFCF72001F09A
:101B54003BFC202001F048FCEA2001F035FC002089
:101B640001F042FC002001F03FFCC02001F02CFCFD
:101B7400262001F039FCC12001F026FC112001F0DF
:101B840033FCC52001F020FC352001F02DFC3E2063
:101B940001F02AFCC72001F017FCBE2001F024FC50
:101BA400362001F011FC654B1B789BB2184601F0FE
:101BB4001BFC3A2001F008FC552001F015FCB12073
:101BC40001F002FC002001F00FFC1B2001F00CFCD2
:101BD400F22001F0F9FB082001F006FC262001F0B8
:101BE400F3FB012001F000FCE02001F0EDFB1F20DD
:101BF40001F0FAFB1A2001F0F7FB182001F0F4FBC6
:101C04000A2001F0F1FB0F2001F0EEFB062001F0A9
:101C1400EBFB452001F0E8FB872001F0E5FB3220D7
:101C240001F0E2FB0A2001F0DFFB072001F0DCFBFE
:101C3400022001F0D9FB072001F0D6FB052001F0BA
:101C4400D3FB002001F0D0FBE12001F0BDFB00201C
:101C540001F0CAFB252001F0C7FB272001F0C4FBDB
:101C6400052001F0C1FB102001F0BEFB092001F0AA
:101C7400BBFB3A2001F0B8FB782001F0B5FB4D2006
:101C840001F0B2FB052001F0AFFB182001F0ACFB22
:101C94000D2001F0A9FB382001F0A6FB3A2001F049
:101CA400A3FB1F2001F0A0FB2A2001F08DFB0020E4
:101CB40001F09AFB002001F097FB002001F094FB57
:101CC400EF2001F091FB2B2001F07EFB002001F0BE
:101CD4008BFB002001F088FB012001F085FB3F20F5
:101CE40001F082FBB72001F06FFB072001F07CFBC1
:101CF400B62001F069FB0A2001F076FB822001F096
:101D040073FB272001F070FB002001F06DFB112014
:101D140001F05AFB642002F0DDF9292001F054FBA4
:101D2400642002F0D7F92C2001F04EFB01F066FA92
:101D340000BFBD4680BD00BFBC020020540100208E
:101D440055010020560100205701002080B584B0C1
:101D540000AF4E4B1B88013B9AB24C4B5B88013B56
:101D64009BB20021002001F0FDF9484B5B88DB08A1
:101D74009BB2FB710023FB607CE00023BB6070E03E
:101D8400424B5B885A1EFB79D31AFA689A4204DDE7
:101D94004FF6FF7001F028FB60E03C4B5B885A1E55
:101DA400FB795B00D31AFA689A4203DD1F2001F025
:101DB4001BFB53E0354B5B885A1EFB7919469B008D
:101DC400CB1A1344FA689A4204DD4FF4FC6001F024
:101DD4000BFB43E02D4B5B885A1EFB799B00D31A07
:101DE400FA689A4204DD40F2FF7001F0FDFA35E032
:101DF400264B5B88591EFA7913469B079B1A9B0056
:101E04009B1A0B44FA689A4204DD4FF4784001F0BF
:101E1400EBFA23E01D4B5B88591EFA7913469200B6
:101E24009B1A5B000B44FA689A4204DD4FF61F00CC
:101E340001F0DAFA12E0154B5B885A1EFB79194659
:101E4400DB00CB1A1344FA689A4204DD4FF6E070C3
:101E540001F0CAFA02E0002001F0C6FABB680133BF
:101E6400BB600A4B1B881A46BB68934288DBFB683D
:101E74000133FB60054B5B881A46FB689342FFF60F
:101E84007CAF00BF00BF1037BD4680BD30000020CE
:101E940080B584B000AF0346FB80114B1B88013B27
:101EA4009AB20F4B5B88013B9BB20021002001F0EA
:101EB40059F90B4B1B881A46094B5B8803FB02F349
:101EC400FB6003E0FB88184601F08EFAFB685A1E9B
:101ED400FA60002BF6D100BF00BF1037BD4680BDAD
:101EE4003000002080B582B000AF0346FB800B4673
:101EF400BB8013467B800C4B1B88FA889A420FD216
:101F0400094B5B88BA889A420AD2BB88FA88B98896
:101F1400F88801F027F97B88184601F065FA00E09B
:101F240000BF0837BD4680BD3000002090B585B0A5
:101F340000AF0446084611461A462346FB80034672
:101F4400BB800B467B8013463B80BA88FB889A4251
:101F540005D2FB887B81BB88FB807B89BB80154BCA
:101F64001B88BA889A4203D3124B1B88013BBB805F
:101F7400104B1B88FA889A4203D30E4B1B88013BF3
:101F8400FB807B88BA887988F88801F0EBF8FB88B5
:101F9400FB6006E03B88184601F026FAFB68013333
:101FA400FB60BB88FA689A42F4DD00BF00BF1437B7
:101FB400BD4690BD3000002090B585B000AF04460A
:101FC400084611461A462346FB800346BB800B464F
:101FD4007B8013463B807A88BB889A4205D2BB88B3
:101FE4007B817B88BB807B897B801A4B1B88FA882A
:101FF4009A4203D3174B1B88013BFB80154B5B882C
:10200400BA889A4203D3134B5B88013BBB80114BC4
:102014005B887A889A4203D30E4B5B88013B7B80B2
:102024007B88FA88B988F88801F09CF8BB88FB6043
:1020340006E03B88184601F0D7F9FB680133FB60E2
:102044007B88FA689A42F4DD00BF00BF1437BD46AE
:1020540090BD00BF3000002090B589B000AF0446A9
:10206400084611461A462346FB800346BB800B46AE
:102074007B8013463B80B7F90020B7F90430D31AAC
:1020840083EAE372A2EBE372B7F90210B7F9063000
:10209400CB1A002BB8BF5B429A42CCBF012300236A
:1020A400DBB27B83B7F91A30002B0BD0FB883B8360
:1020B400BB88FB803B8BBB807B88FB823B887B801F
:1020C400FB8A3B80B7F90620B7F902309A420BDD50
:1020D400FB88BB827B88FB80BB8A7B80BB887B823E
:1020E4003B88BB807B8A3B807A88FB88D31A9BB26F
:1020F4003B82B7F90020B7F90430D31A002BB8BFDC
:102104005B42FB81B7F91030DA0F13445B10FB8399
:10211400B7F90420B7F900309A4202DA0123BB83ED
:102124002DE04FF6FF73BB8329E0B7F91A30002B7B
:1021340006D0BB88F9883A8E1846FFF7D3FE05E02F
:10214400FB88B9883A8E1846FFF7CCFEFA8BFB89D8
:10215400D31A9BB2FB83B7F91E30002B09DABA8875
:10216400BB8B13449BB2BB80FA8B3B8A13449BB258
:10217400FB83B7F906309BB201339BB2FB80B7F9FE
:102184000620B7F902309A42CFDD00BF00BF2437E2
:10219400BD4690BD90B583B000AF044608461146D5
:1021A4001A462346FB800346BB800B467B801346BE
:1021B4003B80F888FA887B8813449BB2013B99B230
:1021C400BA883B8BFFF7B2FEF888FA887B88134401
:1021D4009BB2013B99B2BA883B8813449BB2013B42
:1021E4009AB23B8BFFF7A2FEF888B988BA883B887D
:1021F40013449BB2013B9AB23B8BFFF7DDFEFA8896
:102204007B8813449BB2013B98B2B988BA883B8857
:1022140013449BB2013B9AB23B8BFFF7CDFE00BF48
:102224000C37BD4690BD90B585B002AF0446084654
:1022340011461A462346FB800346BB800B467B802F
:1022440013463B80FA883B8B134498B2FA887B8808
:1022540013449AB23B8BD31A99B2BA88BB8BFFF75B
:1022640065FEFA883B8B134498B2FA887B88134442
:102274009AB23B8BD31A99B2BA883B8813449BB267
:10228400013B9AB2BB8BFFF751FEF888BA883B8BAF
:10229400134499B2BA883B8813449AB23B8BD31A3D
:1022A4009AB2BB8BFFF788FEFA887B8813449BB2F3
:1022B400013B98B2BA883B8B134499B2BA883B88E5
:1022C40013449AB23B8BD31A9AB2BB8BFFF774FEBA
:1022D400FA883B8B13449BB218B2BA883B8B1344E5
:1022E4009BB219B2B7F91820BB8B0093012300F0FD
:1022F4004BF8FA887B8813449AB23B8BD31A9BB26F
:10230400013B9BB218B2BA883B8B13449BB219B2FF
:10231400B7F91820BB8B0093022300F035F8FA8834
:102324007B8813449AB23B8BD31A9BB2013B9BB27A
:1023340018B2BA883B8813449AB23B8BD31A9BB227
:10234400013B9BB219B2B7F91820BB8B009304234D
:1023540000F01AF8FA883B8B13449BB218B2BA887F
:102364003B8813449AB23B8BD31A9BB2013B9BB27A
:1023740019B2B7F91820BB8B0093082300F004F8B6
:1023840000BF0C37BD4690BD90B587B000AF044682
:10239400084611461A462346FB800346BB800B467B
:1023A4007B8013467B707B88C3F101039BB2FB8265
:1023B4000123BB827B881A46D203D31A5B009BB2EB
:1023C4007B8200233B827B88FB8195E0B7F9163042
:1023D400002B0EDBB7F90E309BB2013B9BB2FB81A5
:1023E4007B8A02339BB27B82FA8A7B8A13449BB238
:1023F400FB82B7F910309BB201339BB23B82BB8A9C
:1024040002339BB2BB82FA8ABB8A13449BB2FB821F
:102414007B7803F00403002B17D0FA883B8A13441B
:1024240098B2BA88FB8913449BB23A8D1946FFF7D8
:1024340059FDFA88FB89134498B2BA883B8A13443D
:102444009BB23A8D1946FFF74DFD7B7803F00203EA
:10245400002B17D0FA883B8A134498B2BA88FB89B8
:10246400D31A9BB23A8D1946FFF73CFDFA88FB89D3
:10247400134498B2BA883B8AD31A9BB23A8D194650
:10248400FFF730FD7B7803F00803002B17D0FA88A0
:10249400FB89D31A98B2BA883B8A13449BB23A8D0B
:1024A4001946FFF71FFDFA883B8AD31A98B2BA88F7
:1024B400FB8913449BB23A8D1946FFF713FD7B78D1
:1024C40003F00103002B17D0FA88FB89D31A98B2C2
:1024D400BA883B8AD31A9BB23A8D1946FFF702FD9C
:1024E400FA883B8AD31A98B2BA88FB89D31A9BB26A
:1024F4003A8D1946FFF7F6FCB7F91020B7F90E30FC
:102504009A42FFF663AF00BF00BF1C37BD4690BDC3
:1025140090B587B000AF0446084611461A462346D4
:10252400FB800346BB800B467B8013463B807B8845
:10253400C3F101039BB2FB820123BB827B881A4651
:10254400D203D31A5B009BB27B8200233B827B883D
:10255400FB81F888BA887B8813449BB23A88194671
:10256400FFF7C0FCF888BA887B88D31A9BB23A88F4
:102574001946FFF7B7FCFA887B8813449BB2B988E5
:102584003A881846FFF7AEFCFA887B88D31A9BB2C8
:10259400B9883A881846FFF7A5FC81E0B7F91630E8
:1025A400002B0EDBB7F90E309BB2013B9BB2FB81D3
:1025B4007B8A02339BB27B82FA8A7B8A13449BB266
:1025C400FB82B7F910309BB201339BB23B82BB8ACA
:1025D40002339BB2BB82FA8ABB8A13449BB2FB824E
:1025E400FA883B8A134498B2BA88FB8913449BB295
:1025F4003A881946FFF776FCFA883B8AD31A98B2D0
:10260400BA88FB8913449BB23A881946FFF76AFCDF
:10261400FA883B8A134498B2BA88FB89D31A9BB2CE
:102624003A881946FFF75EFCFA883B8AD31A98B2B7
:10263400BA88FB89D31A9BB23A881946FFF752FC31
:10264400FA88FB89134498B2BA883B8A13449BB234
:102654003A881946FFF746FCFA88FB89D31A98B2E0
:10266400BA883B8A13449BB23A881946FFF73AFC6E
:10267400FA88FB89134498B2BA883B8AD31A9BB26E
:102684003A881946FFF72EFCFA88FB89D31A98B2C8
:10269400BA883B8AD31A9BB23A881946FFF722FCC0
:1026A400B7F91020B7F90E309A42FFF677AF00BFA2
:1026B40000BF1C37BD4690BD90B585B002AF04463F
:1026C400084611461A462346FB800346BB800B4648
:1026D4007B8013463B80B7F90040B7F90220B7F975
:1026E4000410B7F906003B8C00932346FFF7B4FCB3
:1026F400B7F91C40B7F91820B7F90010B7F9020070
:102704003B8C00932346FFF7A7FCB7F90440B7F9C5
:102714000620B7F91C10B7F918003B8C0093234628
:10272400FFF79AFC00BF0C37BD4690BD90B585B04D
:1027340002AF0446084611461A462346FB80034668
:10274400BB800B467B8013463B80F888BA887B8825
:10275400D31A99B2BA887B8813449BB201339AB2D4
:102764003B88FFF729FCB7F90220B7F90410B7F941
:1027740006003B88019300230093032300F004F830
:1027840000BF0C37BD4690BD90B587B000AF04467E
:10279400084611461A462346FB800346BB800B4677
:1027A4007B8013467B707B88C3F101039BB2FB8261
:1027B4000123BB827B881A46D203D31A5B009BB2E7
:1027C4007B8200233B827B88FB817BE0B7F9163058
:1027D400002B0EDBB7F90E309BB2013B9BB2FB81A1
:1027E4007B8A02339BB27B82FA8A7B8A13449BB234
:1027F400FB82B7F910309BB201339BB23B82BB8A98
:1028040002339BB2BB82FA8ABB8A13449BB2FB821B
:102814007B7803F00103002B27D0FA883B8A13440A
:1028240098B2BA88FB89D31A99B2BA88FB8913443F
:102834009AB23B8D13449BB201339AB2BB8DFFF71E
:10284400BBFBFA88FB89134498B2BA883B8AD31A33
:1028540099B2BA883B8A13449AB23B8D13449BB213
:1028640001339AB2BB8DFFF7A7FB7B7803F0020319
:10287400002B27D0FA883B8AD31A98B2BA88FB89EE
:10288400D31A99B2BA88FB8913449AB23B8D134484
:102894009BB201339AB2BB8DFFF78EFBFA88FB899A
:1028A400D31A98B2BA883B8AD31A99B2BA883B8AA7
:1028B40013449AB23B8D13449BB201339AB2BB8D3D
:1028C400FFF77AFBB7F91020B7F90E309A42FFF6FA
:1028D4007DAF00BF00BF1C37BD4690BD90B585B02D
:1028E40000AF0446084611461A462346FB800346B9
:1028F400BB800B467B8013463B80B7F90630244AE5
:10290400128893423FDAB7F90430214A528893423D
:1029140039DAB7F90620B7F9023013441C4A128891
:10292400934205DD1A4B1A88FB88D31A9BB27B802D
:10293400B7F90420B7F900301344154A528893427A
:1029440005DD134B5A88BB88D31A9BB23B80BB88E6
:10295400FB810EE0F888FA887B88134499B2FA89DF
:102964003B8CFFF7E3FAB7F90E309BB201339BB20D
:10297400FB81B7F90E20B7F90410B7F900300B4406
:102984009A42E7DD00E000BF1437BD4690BD00BFAA
:102994003000002090B585B002AF044608461146C9
:1029A4001A462346FB800346BB800B467B801346B6
:1029B4003B80FA883B8B13449BB218B27A883B8BDA
:1029C4005B009BB2D31A9BB21AB2B7F90040B7F9B5
:1029D4000410BB8B00932346FFF780FFFA887B88A3
:1029E40013449AB23B8BD31A9BB2013B9BB218B2ED
:1029F400BA883B8B13449BB219B23A883B8B5B0079
:102A04009BB2D31A9BB2013B9BB21BB2B7F91840DD
:102A1400BA8B0192009301232246FFF7B5FEFA8890
:102A24003B8B13449BB218B2BA883B8B13449BB2C2
:102A340019B23A883B8B5B009BB2D31A9BB2013B21
:102A44009BB21BB2B7F91840BA8B019200930223D0
:102A54002246FFF799FE00BF0C37BD4690BD90B5E6
:102A64008FB000AF0446084611461A462346FB8041
:102A74000346BB800B467B8013463B80B7F904209A
:102A8400B7F900309A420BDDBB88FB843B88BB80DE
:102A9400FB8C3B80FB88BB847B88FB80BB8C7B806E
:102AA400B7F90020B7F94C309A420FDDB7F84C3033
:102AB4007B843B88A7F84C307B8C3B80B7F848304C
:102AC4003B847B88A7F848303B8C7B80B7F9042093
:102AD400B7F900309A420BDDBB88FB833B88BB808F
:102AE400FB8B3B80FB88BB837B88FB80BB8B7B8021
:102AF400B7F90420B7F94C309A4231D1FB88BB8630
:102B0400BB8EFB86B7F90220B7F936309A4202DA57
:102B14007B88FB8607E0B7F90220B7F934309A4284
:102B240001DD7B88BB86B7F94820B7F936309A4275
:102B340003DAB7F84830FB8608E0B7F94820B7F95C
:102B440034309A4202DDB7F84830BB86F88EBB8E2B
:102B5400013399B2BA88B7F85030FFF7E7F9C8E003
:102B64007A88FB88D31A9BB27B833A88BB88D31AB2
:102B74009BB23B83B7F84820FB88D31A9BB2FB82F5
:102B8400B7F84C20BB88D31A9BB2BB82B7F8482055
:102B94007B88D31A9BB27B82B7F84C203B88D31A2C
:102BA4009BB23B820023FB620023BB62B7F9002087
:102BB400B7F94C309A4202D13B883B8603E03B880C
:102BC400013B9BB23B86BB887B8638E0B7F9183063
:102BD400FA6A92FBF3F39AB2FB8813449BB2FB8626
:102BE400B7F91430BA6A92FBF3F39AB2FB88134430
:102BF4009BB2BB86B7F91A30FA6A1344FB62B7F981
:102C04001630BA6A1344BB62B7F93620B7F93430C8
:102C14009A4205DDFB8EBB81BB8EFB86BB89BB86DE
:102C2400F88EBB8E013399B27A8EB7F85030FFF725
:102C34007DF9B7F932309BB201339BB27B86B7F989
:102C44003220B7F930309A42C0DDB7F91230B7F903
:102C54003210B7F900208A1A02FB03F3FB62B7F9BA
:102C64001630B7F93210B7F904208A1A02FB03F3BD
:102C7400BB6238E0B7F91030FA6A92FBF3F39AB208
:102C84007B8813449BB2FB86B7F91430BA6A92FB73
:102C9400F3F39AB2FB8813449BB2BB86B7F91230A4
:102CA400FA6A1344FB62B7F91630BA6A1344BB627A
:102CB400B7F93620B7F934309A4205DDFB8EFB8133
:102CC400BB8EFB86FB89BB86F88EBB8E013399B223
:102CD4007A8EB7F85030FFF729F9B7F932309BB242
:102CE40001339BB27B86B7F93220B7F94C309A4254
:102CF400C0DD3C37BD4690BD80B584B000AF03460F
:102D04003A60FB800B46BB80244B1B88FA889A42AE
:102D14003BD2224B5B88BA889A4236D2FB883A6807
:102D2400128813441D4A1288934230DCBB883A68E7
:102D340052881344194A528893422ADC0023FB60C8
:102D44001CE0FB689AB2BB88134499B23B689B6849
:102D54003A6892881046FA6802FB00F21A443B680B
:102D64009B8818463B689B79DB08DBB290FBF3F346
:102D7400F88800F0F3FAFB680133FB603B685B887A
:102D84001A46FB689342DCDB04E000BF02E000BFAC
:102D940000E000BF1037BD4680BD00BF30000020FA
:102DA40090B585B000AF0446084611461A4623463E
:102DB400FB800346BB800B46FB7013463B80B7F990
:102DC40006304A4A1288934280F28C80B7F9043064
:102DD400464A5288934280F28580B7F90630444AC5
:102DE400926892881344002B7CDBB7F90430404A84
:102DF4009268D2881344002B74DB3D4B9B68DB88BC
:102E0400DB089BB2BB720023FB730023BB7361E03E
:102E140000233B7355E0364B9B681B68FA78203AD5
:102E240033498968C98801FB02F2B97A01FB02F1CE
:102E3400BA7BB87A00FB02F211443A7B0A44134489
:102E44001B787B730023FB7232E097F90D30002B63
:102E540012DAFB7A9AB2FB8813449AB2FB7B9BB2D8
:102E6400134498B2BB7B9AB2BB8813449BB23A8892
:102E74001946FFF737F815E03A8C3B889A4211D08F
:102E8400FB7A9AB2FB8813449AB2FB7B9BB213443D
:102E940098B2BB7B9AB2BB8813449BB23A8C194656
:102EA400FFF720F87B7B5B007B73FB7A0133FB72BB
:102EB400FB7A072BC9D9FB7B0833FB733B7B0133BC
:102EC4003B733A7BBB7A9A42A5D30023FB73BB7B4B
:102ED4000133BB73BB7B9AB2054B9B68DB889A4278
:102EE40096D300E000BF1437BD4690BD30000020EB
:102EF400380000200FB490B585B002AF07F11C0371
:102F04003B603A68B9693D4802F020FE3B4B7B6068
:102F140067E07B681B780A2B0CD1394B5A88394BF4
:102F24009B68DB8813449AB2354B5A80344B002299
:102F34001A804AE07B681B780D2B46D07B681B788F
:102F4400092B0BD12E4B1A882E4B9B689B889B0018
:102F54009BB213449AB22A4B1A8036E0284B1B8842
:102F640018B2274B5B8819B27B681A78254B1B680B
:102F74009CB2244B5B689BB200932346FFF710FF7F
:102F84001F4B1A881F4B9B689B8813449AB21C4B97
:102F94001A801C4B1B7B002B17D0194B1B881A461D
:102FA400194B1B881946174B9B689B88CB1A9A426E
:102FB4000BDD134B5A88134B9B68DB8813449AB27E
:102FC4000F4B5A800E4B00221A807B6801337B60C2
:102FD4000B4B5A880C4B5B889A4202D3084B002255
:102FE4005A807B681B78002B93D100BF00BF0C373D
:102FF400BD46BDE8904004B0704700BF58010020B2
:1030040050010020380000203000002080B483B03C
:1030140000AF7860034A7B68936000BF0C37BD46FD
:1030240080BC70473800002080B483B000AF0346F2
:103034000A46FB801346BB80FB88054A1360BB88A5
:10304400034A536000BF0C37BD4680BC704700BFC5
:103054003800002080B582B000AF0346FB712F4AD0
:10306400FB791371362000F0AFF92C4B1B79032B3D
:1030740042D801A252F823F08D300008C530000870
:10308400A9300008E1300008254B1B789BB2184694
:1030940000F0AAF9214BF0221A80204B4FF4A072C1
:1030A4005A802AE01F4B1B789BB2184600F09CF90B
:1030B4001A4BF0221A80194B4FF4A0725A801CE06C
:1030C400194B1B789BB2184600F08EF9134B4FF442
:1030D400A0721A80114BF0225A800EE0134B1B7819
:1030E4009BB2184600F080F90C4B4FF4A0721A8082
:1030F4000A4BF0225A8000E000BF084B1B88013BBA
:103104009AB2064B5B88013B9BB20021002000F081
:1031140029F800BF0837BD4680BD00BF300000203D
:1031240054010020560100205501002057010020C1
:1031340080B582B000AF03460A46FB801346BB80CD
:10314400074AFB881380064ABB885380BB88FA88E9
:10315400B988F88800F006F800BF0837BD4680BD7E
:103164005001002090B583B000AF044608461146D4
:103174001A462346FB800346BB800B467B801346DE
:103184003B802A2000F020F9FB881B0A9BB21846DA
:1031940000F02AF9FB88DBB29BB2184600F024F950
:1031A4007B881B0A9BB2184600F01EF97B88DBB2B1
:1031B4009BB2184600F018F92B2000F005F9BB88E3
:1031C4001B0A9BB2184600F00FF9BB88DBB29BB216
:1031D400184600F009F93B881B0A9BB2184600F018
:1031E40003F93B88DBB29BB2184600F0FDF82C20B3
:1031F40000F0EAF800BF0C37BD4690BD80B500AFC3
:1032040001220121024801F042FA00BF80BD00BF43
:10321400000C014080B400AF024B1B881846BD4629
:1032240080BC70473000002080B400AF024B5B8844
:103234001846BD4680BC70473000002080B400AF03
:10324400024B1B791846BD4680BC704730000020F5
:1032540080B400AF024B9B681846BD4680BC7047E3
:103264003800002080B584B000AF03460A46FB80D6
:103274001346BB80254B1B88FA889A4204D2234B01
:103284005B88BA889A4201D300233AE02A2000F0EE
:103294009BF8FB881B0A9BB2184600F0A5F8FB8834
:1032A400DBB29BB2184600F09FF82B2000F08CF89C
:1032B400BB881B0A9BB2184600F096F8BB88DBB2A9
:1032C4009BB2184600F090F82E2000F07DF800F034
:1032D4009BF803463B8100F097F803467B8100F09E
:1032E40093F80346BB817B891B0A9BB2D8B27B89C6
:1032F400D9B2BB891B0A9BB2DBB21A4600F008F8AC
:10330400034618461037BD4680BD00BF300000207C
:1033140080B483B000AF0346FB710B46BB71134608
:103324007B71FB791B021BB223F4FF6323F00703B9
:103334001AB2BB79DB001BB203F4FC631BB2134368
:103344001AB27B79DB08DBB21BB213431BB29BB20C
:1033540018460C37BD4680BC7047000080B586B067
:1033640000AFBA607B600346FB810B46BB81002340
:103374007B610F4B1B88013B9AB20D4B5B88013B71
:103384009BB2B989F889FFF7EDFE7B695A1C7A6113
:103394005B00BA6813441B88184600F025F87A6964
:1033A4007B689A42F1D300BF00BF1837BD4680BD89
:1033B4003000002080B500AF012000F005F8322075
:1033C40000F088FE00BF80BD80B483B000AF034628
:1033D400FB714FF0C043FA7992B21A8000BF0C37E8
:1033E400BD4680BC7047000080B483B000AF034684
:1033F400FB80044AFB88138000BF0C37BD4680BCA9
:10340400704700BF0000026080B400AF034B1B880C
:103414009BB21846BD4680BC704700BF00000260E6
:1034240090B484B000AF0446084611461A462346B9
:10343400FB710346BB710B467B7113463B71002342
:10344400FB733B7F002B03D0FB7B43F00403FB7334
:103454003B7E002B03D0FB7B43F00803FB733B79DB
:10346400002B03D0FB7B43F01003FB737B79002B11
:1034740003D0FB7B43F02003FB73BB79002B03D009
:10348400FB7B43F04003FB73FB79002B03D0FB7BF6
:1034940063F07F03FB73FB7B18461037BD4690BC7B
:1034A4007047000080B586B000AF0123FB743B4633
:1034B40000221A605A609A60DA6001237B6000235C
:1034C400BB600223FB6000237B6116E00F4A7B692B
:1034D400DB0013449B883B600C4A7B6952F8333011
:1034E4003A461146184600F027FF7B69DBB21846BE
:1034F40000F00EF87B6901337B617B69012BE5DD0C
:10350400FB7C18461837BD4680BD00BF480000202C
:1035140080B582B000AF0346FB71FB79012B11D853
:10352400FB790A4A52F83300FB79084ADB0013445A
:103534009988FB79054ADB001344DB791A4601F0CC
:10354400A6F800E000BF0837BD4680BD4800002053
:1035540080B582B002AFFFF75DFE03461AB20023C6
:103564000093192300210020FFF7B8F900BFBD46DE
:1035740080BD0000B0B586B002AF0346FB7176484B
:10358400FFF744FDFB79002B00F09380FB79062BB9
:1035940000F28F80714B1B78002B47D06F4B1B7848
:1035A400062B43D86D4B1B78013BBB606C4ABB6850
:1035B40032F8133019464FF6FF70FFF735FD694AAC
:1035C400BB6832F8333018B2664ABB68DB00134478
:1035D4005B8819B2634ABB68DB0013449B881AB248
:1035E400604CBB68DB002344DB881CB25C4DBB68C9
:1035F40035F8133000932346FFF770F9594ABB6836
:1036040032F8333006339AB25649BB68DB000B44B8
:103614005B8804339BB219461046FFF789FD524A72
:10362400BB6852F823301846FFF764FC4B4AFB7919
:103634001370FB79013BFB714C4B1B8819464FF609
:10364400FF70FFF7F1FCFB79464A32F8333018B2C9
:10365400FB79444ADB0013445B8819B2FB79414A85
:10366400DB0013449B881AB2FB793E4CDB002344F5
:10367400DB881CB23D4B1B8800932346FFF72EF9D1
:10368400FB79384A32F8333006339AB2FB7935493C
:10369400DB000B445B8804339BB219461046FFF7EA
:1036A40047FDFB79304A52F823301846FFF722FCD5
:1036B4004EE0FFF74DFF294B00221A700023FB60F8
:1036C40042E0274AFB6832F8133019464FF6FF7080
:1036D400FFF7AAFC234AFB6832F8333018B2214AB8
:1036E400FB68DB0013445B8819B21E4AFB68DB00ED
:1036F40013449B881AB21B4CFB68DB002344DB8811
:103704001CB2174DFB6835F8133000932346FFF7BE
:10371400E5F8144AFB6832F8333006339AB211499B
:10372400FB68DB000B445B8804339BB219461046EC
:10373400FFF7FEFC0C4AFB6852F823301846FFF7EB
:10374400D9FBFB680133FB60FB68052BB9DD00BFC7
:1037540000BF1037BD46B0BD08000020B9020020EC
:10376400A00000205800002088000020AC000020A9
:1037740080B485B000AF03460A46FB801346BB8085
:103784000023FB730023BB6033E01E4ABB6832F89E
:103794003330FA889A4229D9FA881A49BB6831F831
:1037A400333018461749BB68DB000B449B8803443D
:1037B4009A421BDA134ABB68DB0013445B88BA885D
:1037C4009A4213D9BA880F49BB68DB000B445B8863
:1037D40018460C49BB68DB000B44DB8803449A425F
:1037E40004DABB68DBB20133FB7305E0BB68013369
:1037F400BB60BB68052BC8DDFB7B18461437BD4690
:1038040080BC70475800002090B58FB002AF78603C
:103814000B46FB70FFF7FEFC0346D23BDA0F134462
:103824005B10BB61FFF700FD03466E3BDA0F1344E8
:103834005B107B614BF2784002F0A4F803463B61D5
:10384400FFF7E8FC03461C46FFF7EEFC034622465E
:1038540000210020FFF786FCBB69FB6222E07B6944
:10386400BB6217E0FB6A98B2BB6A99B2FA6ABB6999
:10387400D31A6E2202FB03F2BB6A1A447B69D31A81
:103884005B003A69D418FFF7EDFC03462380BB6A5A
:103894000133BB627B696E33BA6A9A42E2D3FB6A34
:1038A4000133FB62BB69D233FA6A9A42D7D3BB694C
:1038B40018B27B6919B21F2300936D23D122FFF73D
:1038C4000DF8BB699BB205339BB218B27B699BB2FE
:1038D40005339BB219B24FF6FF7300936323C722DB
:1038E400FEF7FCFF4FF6FF711F20FFF79DFB5548C5
:1038F400FFF78CFB534B9B88FB73524BDB88BB73EA
:1039040000237B6200233B620023FB614AE0FB69E6
:103914007A6813441B780A2B09D07B6A0133FA7B3B
:1039240002FB03F2FB7BC3F1C8039A4204DD3B6A4A
:1039340001333B6200237B62FB697A6813441B7882
:103944000A2B02D1FB690133FB61FB7B9BB27A6AD0
:1039540092B202FB03F39AB2BB699BB213449BB2CB
:103964000C339BB218B2BB7B02339BB23A6A92B25D
:1039740002FB03F39AB27B699BB213449BB20C33F0
:103984009BB219B2FB697A6813441A784FF6FF7335
:1039940000931F23FFF704FAFB690133FB617B6A81
:1039A40001337B627868FCF73BFC0246FB699A4270
:1039B400ADD8FB784FF47A7202FB03F3184600F09B
:1039C40089FBFFF727FC03461C46FFF72DFC034643
:1039D400224600210020FFF7C5FBBB69FB6222E001
:1039E4007B69BB6217E0FB6A98B2BB6A99B2FA6A58
:1039F400BB69D31A6E2202FB03F2BB6A1A447B69C9
:103A0400D31A5B003A6913441B881A46FEF76AFA14
:103A1400BB6A0133BB627B696E33BA6A9A42E2D3F2
:103A2400FB6A0133FB62BB69D233FA6A9A42D7D389
:103A3400386901F0AFFF0A2000F04CFB00BF3437B7
:103A4400BD4690BD1000002080B500AF174B184A4A
:103A54001A60164B4FF482725A60144B00229A601B
:103A6400124B0022DA60114B00221A610F4B002224
:103A74005A610E4B4FF400729A610C4B2822DA61A2
:103A84000A4B00221A62094B00225A62074B002299
:103A94009A62064B0A22DA62044801F011FA0346DC
:103AA400002B01D0FDF759FE00BF80BD600200204D
:103AB4000038004080B588B000AF786007F110038B
:103AC40000221A605A609A60DA607B681B681C4A9C
:103AD400934231D11B4BDB691A4A43F48043D361CF
:103AE400184BDB6903F48043FB60FB68154B9B694F
:103AF400144A43F008039361124B9B6903F00803D3
:103B0400BB60BB684FF420433B6102237B6103230A
:103B1400FB6107F1100319460B4800F00DFC4FF44C
:103B240080433B6100237B610023BB6107F11003E9
:103B34001946054800F000FC00BF2037BD4680BD93
:103B44000038004000100240000C014080B500AF76
:103B540000224FF48051024800F099FD00BF80BD5F
:103B6400000C014080B500AF01224FF4805102489F
:103B740000F08DFD00BF80BD000C014080B500AF9A
:103B84004FF48071054800F06BFD0346002B0CBF19
:103B940001230023DBB2184680BD00BF00080140AA
:103BA40080B500AFFFF750FF00BF80BD80B58CB07B
:103BB40002AF78603960FFF7C9FF00237B620023FE
:103BC4003B620023FB770023BB773FE0FFF7D6FF80
:103BD400034683F00103DBB2002B3BD1FB7F0133AF
:103BE400FB774FF0FF3301224349444801F0ECF9DD
:103BF40007F110024FF0FF330093022340493F487E
:103C040001F01EFB4FF0FF3301223E493B4801F017
:103C1400DBF907F10C024FF0FF330093022338491C
:103C2400364801F00DFB3B7B1B027A7B13431A469B
:103C34007B6A13447B623B7C1B027A7C13431A46E7
:103C44003B6A13443B62BB7F0133BB77BB7F0F2BC3
:103C5400BCD900E000BFFFF785FFFB7F0F2B01D825
:103C6400002345E07B6A1B09BB61BB69B3F5FA6FAE
:103C740002D24FF4FA63BB61BB6947F230529342FC
:103C840002D947F23053BB613B6A1B097B617B69F4
:103C940040F2DB52934202D840F2DC537B617B69F1
:103CA40047F24812934202D947F248137B61BA693A
:103CB40013461B019B1A1B01A3F5EA23A3F54073CA
:103CC400114AA2FB03239B0B9AB27B681A807A6980
:103CD40013469B0013449B01A3F5EA23A3F5407309
:103CE4000A4AA2FB03239B0B9AB23B681A80012366
:103CF40018462837BD4680BDE462020860020020F1
:103D0400E8620208EC6202081BECCB954128859816
:103D140090B589B002AF0023BB8200237B820023CD
:103D24003B820023FB810023BB8100237B81002392
:103D34003B810023FB800123FB75FFF77FFA0346D9
:103D4400BB750020FFF786F90020FEF7A1F84FF6B7
:103D5400E07300930623062200210020FEF71AFADE
:103D640000BFFFF70BFF034683F00103DBB2002B18
:103D7400F7D107F1120207F1140311461846FFF7B1
:103D840015FF034683F00103DBB2002B05D0BB7D96
:103D94001846FFF75FF9002322E10020FEF778F8C8
:103DA400FFF742FA0346063B9BB219B24FF6E073A3
:103DB4000093062306220020FEF7ECF900BFFFF76C
:103DC400DDFE0346002BFAD1012000F083F900BF89
:103DD400FFF7D4FE034683F00103DBB2002BF7D1D7
:103DE40007F10E0207F1100311461846FFF7DEFE35
:103DF400034683F00103DBB2002B05D0BB7D1846DC
:103E0400FFF728F90023EBE00020FEF741F8FFF765
:103E140001FA0346063B9BB21CB2FFF705FA0346C0
:103E2400063B9BB219B24FF6E073009306230622B9
:103E34002046FEF7AFF900BFFFF7A0FE0346002BB4
:103E4400FAD1012000F046F900BFFFF797FE0346C0
:103E540083F00103DBB2002BF7D107F10A0207F16B
:103E64000C0311461846FFF7A1FE034683F0010335
:103E7400DBB2002B05D0BB7D1846FFF7EBF800231F
:103E8400AEE00020FEF704F8FFF7C4F90346063B52
:103E94009BB218B24FF6E07300930623062200216A
:103EA400FEF778F900BFFFF769FE0346002BFAD14D
:103EB400012000F00FF900BFFFF760FE034683F016
:103EC4000103DBB2002BF7D1BA1D07F10803114639
:103ED4001846FFF76BFE034683F00103DBB2002BA9
:103EE40005D0BB7D1846FFF7B5F8002378E000BF86
:103EF400FFF744FE0346002BFAD1BB8A1A463B8ADD
:103F0400D31A13F5167F06DBBB8A1A463B8AD31AEB
:103F1400B3F5167F01DD0023FB75FB891A467B8907
:103F2400D31A13F5167F06DBFB891A467B89D31A4D
:103F3400B3F5167F01DD0023FB75BB891A463B8967
:103F4400D31A13F5167F06DBBB891A463B89D31AAD
:103F5400B3F5167F01DD0023FB757B8A1A46FB88C7
:103F6400D31A13F5167F06DB7B8A1A46FB88D31A0D
:103F7400B3F5167F01DD0023FB75FB7D002B27D0F5
:103F8400BB8A1A463B8A1344DA0F13445B109AB275
:103F9400154B1A80BB891A463B891344DA0F134424
:103FA4005B109AB2114B1A807B8A1A46FB88134421
:103FB400DA0F13445B109AB20D4B1A80FB891A4630
:103FC4007B891344DA0F13445B109AB2094B1A80AD
:103FD4000020FDF75DFFBB7D1846FFF73BF8FB7D36
:103FE40018461C37BD4690BDAE000020B00000202E
:103FF400B2000020B400002080B500AFFDF7EEFA57
:10400400FDF726FDFFF7CCFDFFF74CFA00BF80BD9E
:1040140080B500AF084B1B68074A43F010031360D8
:10402400032000F047F9002000F008F8FDF79AFBA0
:104034000023184680BD00BF0020024080B582B036
:1040440000AF7860124B1A68124B1B7819464FF474
:104054007A73B3FBF1F3B2FBF3F3184600F05FF9A4
:104064000346002B01D001230EE07B680F2B0AD8F6
:10407400002279684FF0FF3000F027F9064A7B6888
:104084001360002300E0012318460837BD4680BDB5
:1040940004000020BC000020B800002080B400AF61
:1040A400054B1B781A46054B1B681344034A1360DF
:1040B40000BFBD4680BC7047BC0000200403002044
:1040C40080B400AF024B1B681846BD4680BC7047E5
:1040D4000403002080B584B000AF7860FFF7F0FFE0
:1040E400B8607B68FB60FB68B3F1FF3F05D00A4B07
:1040F4001B781A46FB681344FB6000BFFFF7E0FF20
:104104000246BB68D31AFA689A42F7D800BF00BFC8
:104114001037BD4680BD00BFBC00002080B485B010
:1041240000AF78607B6803F00703FB600C4BDB682F
:10413400BB60BA684FF6FF031340BB60FB681A020A
:10414400BB68134343F0BF6343F40033BB60044ACA
:10415400BB68D36000BF1437BD4680BC704700BF46
:1041640000ED00E080B400AF044BDB681B0A03F0F1
:1041740007031846BD4680BC704700BF00ED00E051
:1041840080B483B000AF0346FB7197F90730002B6E
:104194000BDBFB7903F01F02064997F907305B0933
:1041A400012000FA02F241F8232000BF0C37BD467B
:1041B40080BC704700E100E080B483B000AF0346E8
:1041C4003960FB7197F90730002B0ADB3B68DAB2E0
:1041D4000C4997F907301201D2B20B4483F800233B
:1041E4000AE03B68DAB20849FB7903F00F03043BA9
:1041F4001201D2B20B441A7600BF0C37BD4680BC04
:10420400704700BF00E100E000ED00E080B489B039
:1042140000AFF860B9607A60FB6803F00703FB61E4
:10422400FB69C3F10703042B28BF0423BB61FB69AB
:104234000433062B02D9FB69033B00E000237B61B6
:104244004FF0FF32BB6902FA03F3DA43BB681A404A
:104254007B699A404FF0FF317B6901FA03F3D9433C
:104264007B680B40134318462437BD4680BC704717
:1042740080B582B000AF78607B68013BB3F1807F8A
:1042840001D301230FE00A4A7B68013B53600F21ED
:104294004FF0FF30FFF790FF054B00229A60044B6C
:1042A40007221A60002318460837BD4680BD00BFA8
:1042B40010E000E080B582B000AF78607868FFF766
:1042C4002DFF00BF0837BD4680BD80B586B000AF66
:1042D4000346B9607A60FB7300237B61FFF742FFFA
:1042E40078617A68B9687869FFF790FF024697F9B0
:1042F4000F3011461846FFF75FFF00BF1837BD4661
:1043040080BD80B582B000AF0346FB7197F90730DA
:104314001846FFF735FF00BF0837BD4680BD80B59E
:1043240082B000AF78607868FFF7A2FF03461846B2
:104334000837BD4680BD000080B48BB000AF786004
:10434400396000237B6200233B6279E101227B6AAE
:1043540002FA03F3FB613B681B68FA691340BB6113
:10436400BA69FB699A4240F068813B685B68A04A7D
:1043740093425ED09E4A934275D89E4A934258D047
:104384009C4A93426FD89C4A934252D09A4A934291
:1043940069D89A4A93424CD0984A934263D8984A2F
:1043A400934246D0964A93425DD8122B2AD8122BB8
:1043B40059D801A252F823F03744000811440008E8
:1043C40023440008654400086B4400086B4400085B
:1043D4006B4400086B4400086B4400086B440008FD
:1043E4006B4400086B4400086B4400086B440008ED
:1043F4006B4400086B4400086B440008194400082F
:104404002D4400087F4A934213D02CE03B68DB68BC
:104414003B6229E03B68DB6804333B6224E03B6891
:10442400DB6808333B621FE03B68DB680C333B62AC
:104434001AE03B689B68002B02D104233B6213E023
:104444003B689B68012B05D108233B627B68FA69B2
:104454001A6109E008233B627B68FA695A6103E048
:1044640000233B6200E000BFBB69FF2B01D87B68DF
:1044740001E07B6804337B61BB69FF2B02D87B6A54
:104484009B0002E07B6A083B9B003B617B691A68E6
:104494000F213B6901FA03F3DB431A40396A3B6994
:1044A40001FA03F31A437B691A603B685B6803F003
:1044B4008053002B00F0C180534B9B69524A43F058
:1044C40001039361504B9B6903F00103BB60BB681C
:1044D4004E4A7B6A9B08023352F82330FB607B6AA6
:1044E40003F003039B000F2202FA03F3DB43FA6891
:1044F4001340FB607B68464A93421FD07B68454A61
:10450400934219D07B68444A934213D07B68434A50
:1045140093420DD07B68424A934207D07B68414A5C
:10452400934201D105230AE0062308E0042306E0B0
:10453400032304E0022302E0012300E000237A6A5B
:1045440002F0030292009340FA681343FB602F4980
:104554007B6A9B080233FA6841F823203B685B6856
:1045640003F48033002B06D02F4B1A682E49BB6905
:1045740013430B6006E02C4B1A68BB69DB432A49E2
:1045840013400B603B685B6803F40033002B06D0D8
:10459400254B5A682449BB6913434B6006E0224B00
:1045A4005A68BB69DB43204913404B603B685B6836
:1045B40003F48013002B06D01B4B9A681A49BB697D
:1045C40013438B6006E0184B9A68BB69DB431649BA
:1045D40013408B603B685B6803F40013002B25D009
:1045E400114BDA681049BB691343CB6025E000BF67
:1045F40000003210000031100000221000002110D1
:1046040000001210000011100010024000000140D0
:1046140000080140000C014000100140001401405A
:1046240000180140001C0140000401400B4BDA68F3
:10463400BB69DB4309491340CB607B6A01337B626E
:104644003B681A687B6A22FA03F3002B7FF47EAE80
:1046540000BF00BF2C37BD4680BC7047000401403A
:1046640080B485B000AF78600B467B807B689A6825
:104674007B881340002B02D00123FB7301E000234D
:10468400FB73FB7B18461437BD4680BC704780B46F
:1046940083B000AF78600B467B8013467B707B78D9
:1046A400002B03D07A887B681A6103E07B881A04A4
:1046B4007B681A6100BF0C37BD4680BC70470000A0
:1046C40080B582B000AF0346FB80084B5A69FB8873
:1046D4001340002B06D0054AFB885361FB8818461B
:1046E400FBF7ACFD00BF0837BD4680BD00040140A8
:1046F40080B586B000AF78607B68002B01D10123C0
:104704006CE27B681B6803F00103002B00F08780D8
:10471400924B5B6803F00C03042B0CD08F4B5B684B
:1047240003F00C03082B12D18C4B5B6803F4803329
:10473400B3F5803F0BD1894B1B6803F40033002B86
:104744006CD07B685B68002B68D1012346E27B68F0
:104754005B68B3F5803F06D1804B1B687F4A43F406
:10476400803313602EE07B685B68002B0CD17B4B9D
:104774001B687A4A23F480331360784B1B68774AAA
:1047840023F4802313601DE07B685B68B3F5A02FDE
:104794000CD1724B1B68714A43F4802313606F4B36
:1047A4001B686E4A43F4803313600BE06B4B1B6849
:1047B4006A4A23F480331360684B1B68674A23F406
:1047C400802313607B685B68002B13D0FFF778FCB1
:1047D400386108E0FFF774FC02463B69D31A642B86
:1047E40001D90323FAE15D4B1B6803F40033002B6A
:1047F400F0D014E0FFF764FC386108E0FFF760FCD8
:1048040002463B69D31A642B01D90323E6E1534BD7
:104814001B6803F40033002BF0D100E000BF7B6879
:104824001B6803F00203002B63D04C4B5B6803F05E
:104834000C03002B0BD0494B5B6803F00C03082BD3
:104844001CD1464B5B6803F48033002B16D1434BD9
:104854001B6803F00203002B05D07B681B69012B46
:1048640001D00123BAE13D4B1B6823F0F8027B68B9
:104874005B69DB00394913430B603AE07B681B69D1
:10488400002B20D0364B01221A60FFF719FC386147
:1048940008E0FFF715FC02463B69D31A022B01D945
:1048A40003239BE12D4B1B6803F00203002BF0D084
:1048B4002A4B1B6823F0F8027B685B69DB002749FD
:1048C40013430B6015E0264B00221A60FFF7F8FB38
:1048D400386108E0FFF7F4FB02463B69D31A022B68
:1048E40001D903237AE11D4B1B6803F00203002B5B
:1048F400F0D17B681B6803F00803002B3AD07B6877
:104904009B69002B19D0174B01221A60FFF7D8FBC3
:10491400386108E0FFF7D4FB02463B69D31A022B47
:1049240001D903235AE10D4B5B6A03F00203002B08
:10493400F0D0012000F0A6FA1CE00A4B00221A6015
:10494400FFF7BEFB38610FE0FFF7BAFB02463B6995
:10495400D31A022B08D9032340E100BF0010024000
:1049640000004242800442429E4B5B6A03F0020311
:10497400002BE9D17B681B6803F00403002B00F0D3
:10498400A6800023FB75974BDB6903F08053002B53
:104994000DD1944BDB69934A43F08053D361914B1F
:1049A400DB6903F08053BB60BB680123FB758E4B4E
:1049B4001B6803F48073002B18D18B4B1B688A4A45
:1049C40043F480731360FFF77BFB386108E0FFF763
:1049D40077FB02463B69D31A642B01D90323FDE01C
:1049E400814B1B6803F48073002BF0D07B68DB6879
:1049F400012B06D17B4B1B6A7A4A43F001031362F5
:104A04002DE07B68DB68002B0CD1764B1B6A754A62
:104A140023F001031362734B1B6A724A23F00403ED
:104A240013621CE07B68DB68052B0CD16D4B1B6AA1
:104A34006C4A43F0040313626A4B1B6A694A43F0ED
:104A4400010313620BE0674B1B6A664A23F0010300
:104A54001362644B1B6A634A23F0040313627B688A
:104A6400DB68002B15D0FFF72BFB38610AE0FFF75A
:104A740027FB02463B69D31A41F28832934201D99B
:104A84000323ABE0574B1B6A03F00203002BEED069
:104A940014E0FFF715FB38610AE0FFF711FB02464B
:104AA4003B69D31A41F28832934201D9032395E03A
:104AB4004C4B1B6A03F00203002BEED1FB7D012B50
:104AC40005D1484BDB69474A23F08053D3617B68A7
:104AD400DB69002B00F08180424B5B6803F00C0320
:104AE400082B61D07B68DB69022B46D13F4B002247
:104AF4001A60FFF7E5FA386108E0FFF7E1FA0246C9
:104B04003B69D31A022B01D9032367E0354B1B6899
:104B140003F00073002BF0D17B681B6AB3F5803F70
:104B240008D1304B5B6823F400327B689B682D49C5
:104B340013434B602B4B5B6823F474127B68196A34
:104B44007B685B6A0B43274913434B60274B012265
:104B54001A60FFF7B5FA386108E0FFF7B1FA0246C8
:104B64003B69D31A022B01D9032337E01D4B1B6881
:104B740003F00073002BF0D02FE01C4B00221A60CE
:104B8400FFF79EFA386108E0FFF79AFA02463B699C
:104B9400D31A022B01D9032320E0124B1B6803F024
:104BA4000073002BF0D118E07B68DB69012B01D185
:104BB400012313E00B4B5B68FB60FB6803F480325A
:104BC4007B681B6A9A4206D1FB6803F470127B6807
:104BD4005B6A9A4201D0012300E00023184618378B
:104BE400BD4680BD0010024000700040600042429B
:104BF40080B584B000AF786039607B68002B01D148
:104C04000123D0E06A4B1B6803F007033A689A4219
:104C140010D9674B1B6823F0070265493B681343AF
:104C24000B60634B1B6803F007033A689A4201D098
:104C34000123B8E07B681B6803F00203002B20D03B
:104C44007B681B6803F00403002B05D0594B5B6899
:104C5400584A43F4E06353607B681B6803F008031D
:104C6400002B05D0534B5B68524A43F460535360A6
:104C7400504B5B6823F0F0027B689B684D491343FB
:104C84004B607B681B6803F00103002B40D07B68FA
:104C94005B68012B07D1474B1B6803F40033002BDF
:104CA40015D101237FE07B685B68022B07D1414B60
:104CB4001B6803F00073002B09D1012373E03D4B03
:104CC4001B6803F00203002B01D101236BE0394B75
:104CD4005B6823F003027B685B68364913434B60CF
:104CE400FFF7EEF9F8600AE0FFF7EAF90246FB681D
:104CF400D31A41F28832934201D9032353E02D4B56
:104D04005B6803F00C027B685B689B009A42EBD102
:104D1400274B1B6803F007033A689A4210D2244BCE
:104D24001B6823F0070222493B6813430B60204BA6
:104D34001B6803F007033A689A4201D0012332E06A
:104D44007B681B6803F00403002B08D0194B5B68D5
:104D540023F4E0627B68DB68164913434B607B688D
:104D64001B6803F00803002B09D0124B5B6823F483
:104D740060527B681B69DB000E4913434B6000F0F3
:104D840021F802460B4B5B681B0903F00F030A4929
:104D9400CB5C22FA03F3094A1360094B1B681846DB
:104DA400FFF74CF9002318461037BD4680BD00BFFD
:104DB4000020024000100240EC63000804000020C0
:104DC400B800002090B48AB000AF2A4B3C1D0FCB32
:104DD40084E80F0040F201233B800023FB610023A1
:104DE400BB6100237B6200237B6100233B62224B77
:104DF4005B68FB61FB6903F00C03042B02D0082BF6
:104E040003D02DE01D4B3B622DE0FB699B0C03F0AE
:104E14000F0307F12802134413F8243C7B61FB6958
:104E240003F48033002B13D0134B5B685B0C03F04B
:104E3400010307F12802134413F8283CBB617B6982
:104E44000E4A02FB03F2BB69B2FBF3F37B6204E09C
:104E54007B690B4A02FB03F37B627B6A3B6202E0E1
:104E6400064B3B6200BF3B6A18462837BD4690BCE0
:104E7400704700BFDC6300080010024000127A0093
:104E840000093D0080B485B000AF78600A4B1B6810
:104E94000A4AA2FB03235B0A7A6802FB03F3FB6062
:104EA40000BFFB685A1EFA60002BF9D100BF00BF97
:104EB4001437BD4680BC704704000020D34D6210F7
:104EC40080B582B000AF78607B68002B01D10123EC
:104ED40076E07B685B6A002B08D17B685B68B3F57E
:104EE400827F09D07B680022DA6105E07B680022BA
:104EF4001A617B6800225A617B6800229A627B688F
:104F040093F85130DBB2002B06D17B68002283F882
:104F140050207868FEF7CEFD7B68022283F851208A
:104F24007B681B681A687B681B6822F040021A6061
:104F34007B685B6803F482727B689B6803F40443B8
:104F44001A437B68DB6803F400631A437B681B69BC
:104F540003F002031A437B685B6903F001031A43FD
:104F64007B689B6903F400731A437B68DB6903F075
:104F740038031A437B681B6A03F0800342EA030187
:104F84007B689B6A03F400527B681B680A431A60BF
:104F94007B689B691A0C7B681B6802F004025A60E8
:104FA4007B681B68DA697B681B6822F40062DA613B
:104FB4007B6800225A657B68012283F85120002314
:104FC40018460837BD4680BD80B588B000AFF8608C
:104FD400B9603B601346FB800023FB77FB6893F8C2
:104FE4005030012B01D1022326E1FB68012283F812
:104FF4005020FFF765F8B861FB88FB82FB6893F8E3
:105004005130DBB2012B02D00223FB770BE1BB68EA
:10501400002B02D0FB88002B02D10123FB7702E195
:10502400FB68032283F85120FB6800225A65FB6861
:10503400BA681A63FB68FA889A86FB68FA88DA8683
:10504400FB6800229A63FB6800229A87FB680022AF
:10505400DA87FB6800225A64FB6800221A64FB6842
:105064009B68B3F5004F0FD1FB681B681A68FB6897
:105074001B6822F040021A60FB681B681A68FB6810
:105084001B6842F480421A60FB681B681B6803F0CB
:105094004003402B07D0FB681B681A68FB681B6839
:1050A40042F040021A60FB68DB68B3F5006F4BD135
:1050B400FB685B68002B02D0FB8A012B3ED1FB68A6
:1050C4001B6B1A88FB681B68DA60FB681B6B9A1CF5
:1050D400FB681A63FB68DB8E9BB2013B9AB2FB68E8
:1050E400DA862BE0FB681B689B6803F00203022B43
:1050F40012D1FB681B6B1A88FB681B68DA60FB68BB
:105104001B6B9A1CFB681A63FB68DB8E9BB2013B2A
:105114009AB2FB68DA8611E0FEF7D2FF0246BB6959
:10512400D31A3A689A4203D83B68B3F1FF3F02D1DD
:105134003B68002B02D10323FB7774E0FB68DB8E12
:105144009BB2002BCED14CE0FB685B68002B02D0F5
:10515400FB8A012B40D1FB681A6BFB681B680C337C
:1051640012781A70FB681B6B5A1CFB681A63FB6885
:10517400DB8E9BB2013B9AB2FB68DA862CE0FB68BB
:105184001B689B6803F00203022B13D1FB681A6BA4
:10519400FB681B680C3312781A70FB681B6B5A1C73
:1051A400FB681A63FB68DB8E9BB2013B9AB2FB6817
:1051B400DA8611E0FEF784FF0246BB69D31A3A6827
:1051C4009A4203D83B68B3F1FF3F02D13B68002BFE
:1051D40002D10323FB7726E0FB68DB8E9BB2002B16
:1051E400CDD1BA693968F86800F054FA0346002B47
:1051F40002D0FB6820225A65FB689B68002B0AD109
:1052040000233B61FB681B68DB683B61FB681B6830
:105214009B683B613B69FB685B6D002B02D00123FB
:10522400FB7700E000BFFB68012283F85120FB6894
:10523400002283F85020FB7F18462037BD4680BDEE
:1052440080B58CB000AFF860B9607A607B800123D0
:10525400FB62002387F82B30FB6893F85030012B56
:1052640001D102238AE1FB68012283F85020FEF772
:1052740027FF7862FB6893F8513087F82330FB6886
:105284005B68FB617B887B8397F82330012B0FD00D
:10529400FB69B3F5827F07D1FB689B68002B03D1C0
:1052A40097F82330042B03D0022387F82B305BE1DB
:1052B400BB68002B05D07B68002B02D07B88002BB9
:1052C40003D1012387F82B304EE1FB6893F851306A
:1052D400DBB2042B03D0FB68052283F85120FB6862
:1052E40000225A65FB687A689A63FB687A88DA87D1
:1052F400FB687A889A87FB68BA681A63FB687A88BD
:10530400DA86FB687A889A86FB6800221A64FB684E
:1053140000225A64FB681B681B6803F04003402B9F
:1053240007D0FB681B681A68FB681B6842F04002E0
:105334001A60FB68DB68B3F5006F78D1FB685B68C3
:10534400002B02D07B8B012B66D1FB681B6B1A8868
:10535400FB681B68DA60FB681B6B9A1CFB681A63AA
:10536400FB68DB8E9BB2013B9AB2FB68DA8653E0A2
:10537400FB681B689B6803F00203022B1BD1FB68CC
:10538400DB8E9BB2002B16D0FB6A012B13D1FB687A
:105394001B6B1A88FB681B68DA60FB681B6B9A1C22
:1053A400FB681A63FB68DB8E9BB2013B9AB2FB6815
:1053B400DA860023FB62FB681B689B6803F0010329
:1053C400012B19D1FB68DB8F9BB2002B14D0FB6837
:1053D4001B68DA68FB689B6B92B21A80FB689B6B54
:1053E4009A1CFB689A63FB68DB8F9BB2013B9AB201
:1053F400FB68DA870123FB62FEF762FE02467B6AE2
:10540400D31ABA6B9A4207D8BB6BB3F1FF3F03D0F0
:10541400032387F82B30A7E0FB68DB8E9BB2002BBD
:10542400A6D1FB68DB8F9BB2002BA1D17CE0FB688B
:105434005B68002B02D07B8B012B6BD1FB681A6B52
:10544400FB681B680C3312781A70FB681B6B5A1CC0
:10545400FB681A63FB68DB8E9BB2013B9AB2FB6864
:10546400DA8657E0FB681B689B6803F00203022B93
:105474001CD1FB68DB8E9BB2002B17D0FB6A012B7F
:1054840014D1FB681A6BFB681B680C3312781A7012
:10549400FB681B6B5A1CFB681A63FB68DB8E9BB2B0
:1054A400013B9AB2FB68DA860023FB62FB681B6847
:1054B4009B6803F00103012B19D1FB68DB8F9BB2BE
:1054C400002B14D0FB681B68DA68FB689B6BD2B2B4
:1054D4001A70FB689B6B5A1CFB689A63FB68DB8F32
:1054E4009BB2013B9AB2FB68DA870123FB62FEF7A9
:1054F400E7FD02467B6AD31ABA6B9A4203D8BB6BA8
:10550400B3F1FF3F02D1BB6B002B03D1032387F818
:105514002B3029E0FB68DB8E9BB2002BA2D1FB6809
:10552400DB8F9BB2002B9DD17A6AB96BF86800F0CF
:10553400B1F80346002B06D0012387F82B30FB6813
:1055440020225A6510E0FB689B68002B0BD10023D6
:105554007B61FB681B68DB687B61FB681B689B687D
:105564007B617B6900E000BFFB68012283F8512066
:10557400FB68002283F8502097F82B301846303708
:10558400BD4680BD80B588B000AFF860B9603B60AF
:105594001346FB71FEF794FD0246BB6A9B1A3A68F8
:1055A4001344FB61FEF78CFDB861394B1B685B014A
:1055B4001B0DFA6902FB03F37B6154E03B68B3F112
:1055C400FF3F50D0FEF77CFD0246BB69D31AFA694F
:1055D4009A4202D9FB69002B3DD1FB681B685A68CB
:1055E400FB681B6822F0E0025A60FB685B68B3F555
:1055F400827F11D1FB689B68B3F5004F04D0FB6830
:105604009B68B3F5806F07D1FB681B681A68FB6859
:105614001B6822F040021A60FB689B6AB3F5005FC6
:105624000FD1FB681B681A68FB681B6822F40052E0
:105634001A60FB681B681A68FB681B6842F4005216
:105644001A60FB68012283F85120FB68002283F86A
:105654005020032317E07B69002B01D10023FB6159
:105664007B69013B7B61FB681B689A68BB681340DC
:10567400BA689A420CBF01230023DBB21A46FB79B5
:105684009A429BD1002318462037BD4680BD00BFF7
:105694000400002080B586B002AFF860B9607A607B
:1056A4007B680093BB6800228021F868FFF76AFFDB
:1056B4000346002B07D0FB685B6D43F02002FB68B8
:1056C4005A65032300E0002318461037BD4680BD09
:1056D40080B584B000AFF860B9607A60FB68002BD5
:1056E40004D0FB689B69B3F5807F01D1012338E0C6
:1056F400FB6893F84130DBB2002B06D1FB68002233
:1057040083F84020F868FCF799F9FB681A68FB688D
:1057140008331946104600F029F8FB681868FB683E
:105724009B681A46B96800F08BF8FB685868FB68F8
:105734009A68FB681B6B796800F0B6F8FB681B6815
:10574400FA68926853F82210FB681B68FA6892683A
:1057540041F0010143F82210FB68012283F8412043
:10576400002318461037BD4680BD000080B487B0C2
:1057740000AF786039603B681A687B6853F8223060
:105784003A68126823F001017B6843F822103B68F1
:105794009B68082B02D140237B6101E000237B61DD
:1057A4003B685A687B691A433B689B681A433B68A9
:1057B400DB681A433B681B691A433B685B691A43FD
:1057C4003B68DB691A433B681B6A1A433B685B6AA4
:1057D4001A433B689B6A1A433B68DB6A1A433B687B
:1057E4001B6B13433B613B689B693A6913433B6101
:1057F4003B685B6B3A6913433B61104BFB60FB688E
:1058040043F48063FB60FB6843F4E023FB603B6884
:105814001A687B6853F82220FB68DB4302EA030121
:105824003B681A683B6919437B6843F822100023DC
:1058340018461C37BD4680BC704700BF7FFB08007C
:1058440080B485B000AFF860B9607A607B685A1C98
:10585400FB6853F8223003F04041BB681A68BB6808
:105864005B681B011A43BB689B681B021A43BB6835
:10587400DB681B041A43BB681B69013B1B051A4305
:10588400BB685B69023B1B061A43BB689B691343F5
:105894007A6801321943FB6843F822100023184642
:1058A4001437BD4680BC704780B485B000AFF86043
:1058B400B9607A603B603B68B3F5804F1DD1FB68EB
:1058C4007A6853F82220134B1340BA681168BA68F7
:1058D400526812011143BA68926812021143BA68FD
:1058E40092691143BA68D26812040A4343EA020176
:1058F400FB687A6843F8221005E0FB687A686FF069
:10590400704143F82210002318461437BD4680BC6A
:10591400704700BF0000F0CF80B500AFFEF76CFB0E
:10592400FAF786FCFAF752FD0023184680BD000002
:10593400014B1868704700BFC000002070B50026F6
:105944000C4D0D4C641BA410A64209D100F06CFC54
:1059540000260A4D0A4C641BA410A64205D170BD52
:1059640055F8043B98470136EEE755F8043B984751
:105974000136F2E72063020820630208206302086C
:1059840024630208024B0146186800F05FB800BFA8
:10599400C0000020024B0146186800F00BB800BF9D
:1059A400C000002003460244934200D1704703F82C
:1059B400011BF9E738B50546002943D051F8043CEA
:1059C4000C1F002BB8BFE41800F0CAF81E4A136875
:1059D400104633B9636014602846BDE8384000F0CF
:1059E400C5B8A3420AD921686218934201BF1A6854
:1059F4005B685218226063600460EDE71A465B68D6
:105A04000BB1A342FAD911685018A0420BD12068F7
:105A14000144501883421160DED118685B68014468
:105A240011605360D8E702D90C232B60D4E72068B7
:105A340021188B4201BF19685B68091821606360F3
:105A44005460C9E738BD00BF58020020F8B5CD1C2A
:105A540025F0030508350C2D38BF0C25002D06460E
:105A640001DBA94203D90C2333600020F8BD00F008
:105A740077F821490A6814469CB9204F3B6823B93A
:105A84002146304600F03CF838602946304600F0A4
:105A940037F8431C23D10C233046336000F066F8FA
:105AA400E3E723685B1B17D40B2B03D923601C4447
:105AB400256004E06368A2420CBF0B60536030466B
:105AC40000F054F804F10B00231D20F00700C21A63
