:020000040800F2
:1000000000000120A9050008D1040008D704000859
:10001000DD040008E3040008E90400080000000013
:10002000000000000000000000000000EF040008D5
:10003000FB04000800000000070500081305000885
:10004000F1050008F1050008F1050008F1050008B8
:10005000F1050008F1050008F1050008F1050008A8
:10006000F1050008F1050008F1050008F105000898
:10007000F1050008F1050008F1050008F105000888
:10008000F1050008F1050008F1050008F105000878
:10009000F1050008F1050008F10500081F0500083A
:1000A000F1050008F1050008F1050008F105000858
:1000B000F1050008F1050008F1050008F105000848
:1000C000F1050008F1050008F1050008F105000838
:1000D000F1050008F1050008F1050008F105000828
:1000E000F1050008F1050008F1050008F105000818
:1000F000F1050008F1050008F1050008F105000808
:10010000F1050008F1050008F1050008F1050008F7
:10011000F1050008F1050008F1050008F1050008E7
:10012000F1050008F1050008F1050008F1050008D7
:1001300000000000000000000000000000000000BF
:1001400000000000000000000000000000000000AF
:10015000000000000000000000000000000000009F
:10016000000000000000000000000000000000008F
:10017000000000000000000000000000000000007F
:10018000000000000000000000000000000000006F
:10019000000000000000000000000000000000005F
:1001A000000000000000000000000000000000004F
:1001B000000000000000000000000000000000003F
:1001C000000000000000000000000000000000002F
:1001D000000000000000000000000000000000001F
:0401E0005FF8E0F1F3
:1001E40010B5054C237833B9044B13B10448AFF36D
:1001F40000800123237010BDA00000200000000037
:100204000838000808B5034B1BB103490348AFF392
:10021400008008BD00000000A40000200838000889
:1002240080B400AF00BFBD4680BC704780B500AF4E
:10023400002000F039FF012000F036FF642000F0B8
:10024400BDF8F5E780B584B000AF0346FB80FB88BA
:10025400B3F5807F2AD1174B1B78002B25D1164B81
:100264001B78002B21D101F0E3F80346002B1DD0AD
:10027400104B01221A701149114801F0F1F8114B89
:100284001B78002B12D00E4B1B880C4A1288114687
:10029400184600F0E7FF0346FB73FB7B002B05D0F9
:1002A400FB7B184600F01CFF00E000BF1037BD4682
:1002B40080BD00BFBC0000203A020020C000002026
:1002C400BE0000203802002080B58AB000AF01F0E3
:1002D40085F900F07EF807F1180300221A605A60CD
:1002E4009A60DA60314B9B69304A43F010039361A2
:1002F4002E4B9B6903F010037B617B692B4B9B693D
:100304002A4A43F004039361284B9B6903F00403D6
:100314003B613B69254B9B69244A43F00803936185
:10032400224B9B6903F00803FB60FB681F4B9B692E
:100334001E4A43F0400393611C4B9B6903F0400346
:10034400BB60BB68194B9B69184A43F02003936157
:10035400164B9B6903F020037B607B6841F2010329
:10036400BB610123FB6101233B6202237B6207F132
:10037400180319460E4801F0C5FA4FF48073BB61A7
:100384000C4BFB6101233B6207F1180319460A4831
:1003940001F0B8FA00220021172001F07CFA17209E
:1003A40001F095FA00BF2837BD4680BD0010024019
:1003B400000C0140000021100008014080B582B00B
:1003C40000AF7860786801F06BF900BF0837BD466C
:1003D40080BD80B590B000AF07F11803282200213A
:1003E400184602F0CDFD3B1D00221A605A609A6047
:1003F400DA601A610123BB614FF48033FB6100238F
:100404003B620123BB6202237B634FF48033BB63F3
:100414004FF4E013FB6307F11803184601F066FC80
:100424000346002B01D000F019F80F237B60022350
:10043400BB600023FB604FF480633B6100237B615E
:100444003B1D0221184601F0D1FE0346002B01D0CA
:1004540000F004F800BF4037BD4680BD80B400AF53
:1004640072B600BFFEE7000080B485B000AF154B44
:100474009B69144A43F001039361124B9B6903F097
:100484000103BB60BB680F4BDB690E4A43F080532A
:10049400D3610C4BDB6903F080537B607B680A4BB0
:1004A4005B68FB60FB6823F0E063FB60FB6843F080
:1004B4000073FB60044AFB68536000BF1437BD46F9
:1004C40080BC7047001002400000014080B400AFBF
:1004D400FEE780B400AFFEE780B400AFFEE780B46F
:1004E40000AFFEE780B400AFFEE780B400AF00BF0A
:1004F400BD4680BC704780B400AF00BFBD4680BC21
:10050400704780B400AF00BFBD4680BC704780B563
:1005140000AF01F0A9F800BF80BD80B500AF4FF473
:10052400807001F0CBFB00BF80BD000080B586B0B9
:1005340000AF7860144A154BD31A7B617B693B6129
:10054400134B1B68002B02D1114B124A1A60104B3B
:100554001A687B6813443A699A4207D202F0E6FCAF
:1005640003460C221A604FF0FF3309E0084B1B6866
:10057400FB60074B1A687B681344054A1360FB68E9
:1005840018461837BD4680BD000001200004000055
:10059400C40000209802002080B400AF00BFBD4614
:1005A40080BC7047002103E00B4B5B58435004317F
:1005B4000A480B4B42189A42F6D30A4A02E0002337
:1005C40042F8043B084B9A42F9D3FFF7E5FF02F0E7
:1005D400B3FC02F09FFC7047F83C000800000020C8
:1005E400A0000020A000002098020020FEE70000E8
:1005F40080B588B000AF3B1D00221A605A609A6033
:10060400DA601A615A619A61284B4FF020421A60ED
:10061400264B274A5A60254B00229A60234B00221E
:10062400DA60224B00221A61204B10225A611F4BC0
:1006340000229A611D4B0022DA611C4B00221A62CF
:100644001A4B00225A62194B4FF480529A62174B8C
:100654000022DA62154B00221A63144B00225A63FB
:10066400124B00229A630F237B600F23BB60FF238E
:10067400FB600F233B6110237B611123BB610023CB
:10068400FB613B1D00221946084802F01FFB03468C
:10069400002B01D0FFF7E2FE064BDB69054A43F469
:1006A4008063D36100BF2037BD4680BD3C0200207B
:1006B400040100A00000014080B586B000AF07F13E
:1006C400080300221A605A609A60DA60184B1B68AB
:1006D400002B29D1164B01221A60164B5B69154A6F
:1006E40043F480735361134B5B6903F480737B6041
:1006F4007B684FF68073BB600223FB6003237B613E
:1007040007F1080319460C4801F0FCF84CF6B373E2
:10071400BB600223FB6003237B6107F108031946D6
:10072400064801F0EFF800E000BF1837BD4680BD71
:10073400C8000020001002400018014000140140CD
:1007440080B582B000AF7860FFF7B6FF00BF08370E
:10075400BD4680BD80B582B002AFFFF749FFB74800
:10076400FFF7EEFF002301930123009300230022EF
:100774000121002000F000FC03461A46B04B1A7019
:100784000023019301230093002301220021002070
:1007940000F0F2FB03461A46AA4B1A700023019399
:1007A40001230093002300220021012000F0E4FB38
:1007B40003461A46A44B1A700023019301230093A5
:1007C400002301220121012000F0D6FB03461A4632
:1007D4009E4B1A7000F0A6FB282000F0ADFBCF2042
:1007E40000F0AAFB002000F0B7FB832000F0B4FB6C
:1007F400302000F0B1FBED2000F09EFB642000F0FF
:10080400ABFB032000F0A8FB122000F0A5FB812025
:1008140000F0A2FBE82000F08FFB852000F09CFB99
:10082400012000F099FB792000F096FBCB2000F02A
:1008340083FB392000F090FB2C2000F08DFB00207E
:1008440000F08AFB342000F087FB022000F084FBD8
:10085400F72000F071FB202000F07EFBEA2000F07E
:100864006BFB002000F078FB002000F075FBC0203B
:1008740000F062FB262000F06FFBC12000F05CFB5F
:10088400112000F069FBC52000F056FB352000F074
:1008940063FB3E2000F060FBC72000F04DFBBE2050
:1008A40000F05AFB362000F047FB654B1B789BB2E7
:1008B400184600F051FB3A2000F03EFB552000F0B2
:1008C4004BFBB12000F038FB002000F045FB1B205F
:1008D40000F042FBF22000F02FFB082000F03CFB6C
:1008E400262000F029FB012000F036FBE02000F078
:1008F40023FB1F2000F030FB1A2000F02DFB1820F2
:1009040000F02AFB0A2000F027FB0F2000F024FB54
:10091400062000F021FB452000F01EFB872000F09C
:100924001BFB322000F018FB0A2000F015FB072007
:1009340000F012FB022000F00FFB072000F00CFB7C
:10094400052000F009FB002000F006FBE12000F088
:10095400F3FA002000F000FB252000F0FDFA272028
:1009640000F0FAFA052000F0F7FA102000F0F4FA8B
:10097400092000F0F1FA3A2000F0EEFA782000F0B5
:10098400EBFA4D2000F0E8FA052000F0E5FA182013
:1009940000F0E2FA0D2000F0DFFA382000F0DCFA73
:1009A4003A2000F0D9FA1F2000F0D6FA2A2000F0ED
:1009B400C3FA002000F0D0FA002000F0CDFA0020A5
:1009C40000F0CAFAEF2000F0C7FA2B2000F0B4FAC6
:1009D400002000F0C1FA002000F0BEFA012000F06F
:1009E400BBFA3F2000F0B8FAB72000F0A5FA0720C0
:1009F40000F0B2FAB62000F09FFA0A2000F0ACFA38
:100A0400822000F0A9FA272000F0A6FA002000F0C6
:100A1400A3FA112000F090FA642000F041FE29208E
:100A240000F08AFA642000F03BFE2C2000F084FAE7
:100A340000F06CFA00BFBD4680BD00BF3C02002040
:100A4400D0000020D1000020D2000020D3000020DC
:100A540080B582B000AF0346FB800B46BB801346D3
:100A64007B800C4B1B88FA889A420FD2094B5B8817
:100A7400BA889A420AD2BB88FA88B988F88800F002
:100A8400F9F97B88184600F067FA00E000BF0837E0
:100A9400BD4680BD0C00002090B585B000AF044673
:100AA400084611461A462346FB800346BB800B4684
:100AB4007B8013463B80BA88FB889A4205D2FB8828
:100AC4007B81BB88FB807B89BB80154B1B88BA88E4
:100AD4009A4203D3124B1B88013BBB80104B1B88EB
:100AE400FA889A4203D30E4B1B88013BFB807B8818
:100AF400BA887988F88800F0BDF9FB88FB6006E0C5
:100B04003B88184600F028FAFB680133FB60BB8879
:100B1400FA689A42F4DD00BF00BF1437BD4690BDA9
:100B24000C00002090B585B000AF0446084611467D
:100B34001A462346FB800346BB800B467B80134644
:100B44003B80B7F90630244A128893423FDAB7F95A
:100B54000430214A5288934239DAB7F90620B7F9AA
:100B6400023013441C4A1288934205DD1A4B1A883A
:100B7400FB88D31A9BB27B80B7F90420B7F9003005
:100B84001344154A5288934205DD134B5A88BB8897
:100B9400D31A9BB23B80BB88FB810EE0F888FA88AD
:100BA4007B88134499B2FA893B8CFFF775FFB7F938
:100BB4000E309BB201339BB2FB81B7F90E20B7F91B
:100BC4000410B7F900300B449A42E7DD00E000BF9F
:100BD4001437BD4690BD00BF0C00002090B585B011
:100BE40000AF0446084611461A462346FB800346D6
:100BF400BB800B46FB7013463B80B7F906304A4A6C
:100C04001288934280F28C80B7F90430464A5288A5
:100C1400934280F28580B7F90630444A92689288FC
:100C24001344002B7CDBB7F90430404A9268D28825
:100C34001344002B74DB3D4B9B68DB88DB089BB2C1
:100C4400BB720023FB730023BB7361E000233B737F
:100C540055E0364B9B681B68FA78203A334989681B
:100C6400C98801FB02F2B97A01FB02F1BA7BB87AB6
:100C740000FB02F211443A7B0A4413441B787B7351
:100C84000023FB7232E097F90D30002B12DAFB7A65
:100C94009AB2FB8813449AB2FB7B9BB2134498B27A
:100CA400BB7B9AB2BB8813449BB23A881946FFF7C0
:100CB400CFFE15E03A8C3B889A4211D0FB7A9AB267
:100CC400FB8813449AB2FB7B9BB2134498B2BB7B60
:100CD4009AB2BB8813449BB23A8C1946FFF7B8FE0C
:100CE4007B7B5B007B73FB7A0133FB72FB7A072B04
:100CF400C9D9FB7B0833FB733B7B01333B733A7BE2
:100D0400BB7A9A42A5D30023FB73BB7B0133BB732D
:100D1400BB7B9AB2054B9B68DB889A4296D300E072
:100D240000BF1437BD4690BD0C0000201400002005
:100D34000FB490B585B002AF07F11C033B603A686D
:100D4400B9693D4802F0F0F93B4B7B6067E07B6892
:100D54001B780A2B0CD1394B5A88394B9B68DB889A
:100D640013449AB2354B5A80344B00221A804AE01D
:100D74007B681B780D2B46D07B681B78092B0BD125
:100D84002E4B1A882E4B9B689B889B009BB2134466
:100D94009AB22A4B1A8036E0284B1B8818B2274B8C
:100DA4005B8819B27B681A78254B1B689CB2244B6C
:100DB4005B689BB200932346FFF710FF1F4B1A8812
:100DC4001F4B9B689B8813449AB21C4B1A801C4B84
:100DD4001B7B002B17D0194B1B881A46194B1B88F9
:100DE4001946174B9B689B88CB1A9A420BDD134B11
:100DF4005A88134B9B68DB8813449AB20F4B5A8072
:100E04000E4B00221A807B6801337B600B4B5A889F
:100E14000C4B5B889A4202D3084B00225A807B68B1
:100E24001B78002B93D100BF00BF0C37BD46BDE833
:100E3400904004B0704700BFD4000020CC000020D4
:100E4400140000200C00002080B483B000AF0346DF
:100E54000A46FB801346BB80FB88054A1360BB88A7
:100E6400034A536000BF0C37BD4680BC704700BFC7
:100E74001400002090B583B000AF04460846114624
:100E84001A462346FB800346BB800B467B801346F1
:100E94003B802A2000F050F8FB881B0A9BB21846BE
:100EA40000F05AF8FB88DBB29BB2184600F054F805
:100EB4007B881B0A9BB2184600F04EF87B88DBB295
:100EC4009BB2184600F048F82B2000F035F8BB8898
:100ED4001B0A9BB2184600F03FF8BB88DBB29BB2FA
:100EE400184600F039F83B881B0A9BB2184600F0FC
:100EF40033F83B88DBB29BB2184600F02DF82C2067
:100F040000F01AF800BF0C37BD4690BD80B500AFA5
:100F140001220121024800F0A0FE00BF80BD00BFF5
:100F2400000C014080B500AF012000F005F832202C
:100F340000F0B6FB00BF80BD80B483B000AF0346B1
:100F4400FB714FF0C043FA7992B21A8000BF0C379C
:100F5400BD4680BC7047000080B483B000AF034638
:100F6400FB80044AFB88138000BF0C37BD4680BC5D
:100F7400704700BF0000026090B484B000AF044624
:100F8400084611461A462346FB710346BB710B46BD
:100F94007B7113463B710023FB733B7F002B03D013
:100FA400FB7B43F00403FB733B7E002B03D0FB7BF2
:100FB40043F00803FB733B79002B03D0FB7B43F026
:100FC4001003FB737B79002B03D0FB7B43F02003DE
:100FD400FB73BB79002B03D0FB7B43F04003FB7313
:100FE400FB79002B03D0FB7B63F07F03FB73FB7B5C
:100FF40018461037BD4690BC7047000080B586B0D7
:1010040000AF0123FB743B4600221A605A609A60C9
:10101400DA6001237B600023BB600223FB600023B2
:101024007B6116E00F4A7B69DB0013449B883B60BD
:101034000C4A7B6952F833303A461146184600F0A0
:1010440061FC7B69DBB2184600F00EF87B69013362
:101054007B617B69012BE5DDFB7C18461837BD46B7
:1010640080BD00BF2400002080B582B000AF0346DD
:10107400FB71FB79012B11D8FB790A4A52F8330032
:10108400FB79084ADB0013449988FB79054ADB00A5
:101094001344DB791A4600F0E0FD00E000BF083796
:1010A400BD4680BD2400002080B582B000AF034659
:1010B400FB71FB79012B0DD8FB79084A52F83320D8
:1010C400FB790649DB000B449B881946104600F067
:1010D400DCFD00E000BF0837BD4680BD24000020D1
:1010E400B0B586B002AF0346FB71FB79002B6FD01D
:1010F400FB79002B6CD1564B1B78002B36D0544B0C
:101104001B78002B32D1524B1B78013BBB60514AF8
:10111400BB6832F8133019464FF6FF70FFF794FEA0
:101124004D4ABB6832F8333018B24B4ABB68DB0017
:1011340013445B8819B2484ABB68DB0013449B889C
:101144001AB2454CBB68DB002344DB881CB2414D1A
:10115400BB6835F8133000932346FFF7E3FC3F4A9E
:10116400BB6852F823301846FFF7E2FD384AFB7992
:101174001370FB79013BFB71394B1B8819464FF601
:10118400FF70FFF761FEFB79334A32F8333018B24F
:10119400FB79314ADB0013445B8819B2FB792E4A90
:1011A400DB0013449B881AB2FB792B4CDB002344ED
:1011B400DB881CB22A4B1B8800932346FFF7B2FC42
:1011C400FB79264A52F823301846FFF7B1FD3BE07D
:1011D4001F4B00221A700023FB6031E01D4AFB689C
:1011E40032F8133019464FF6FF70FFF72DFE1A4AF6
:1011F400FB6832F8333018B2174AFB68DB0013443B
:101204005B8819B2144AFB68DB0013449B881AB24A
:10121400114CFB68DB002344DB881CB20D4DFB68DA
:1012240035F8133000932346FFF77CFC0B4AFB6828
:1012340052F823301846FFF77BFDFB680133FB604F
:10124400FB68002BCADB00BF00BF1037BD46B0BD32
:1012540039020020D4010020D4010020D401002050
:10126400D401002080B485B000AF03460A46FB8059
:101274001346BB800023FB730023BB6033E01E4A8C
:10128400BB6832F83330FA889A4229D9FA881A4965
:10129400BB6831F8333018461749BB68DB000B4490
:1012A4009B8803449A421BDA134ABB68DB0013444D
:1012B4005B88BA889A4213D9BA880F49BB68DB00A5
:1012C4000B445B8818460C49BB68DB000B44DB8885
:1012D40003449A4204DABB68DBB20133FB7305E0D2
:1012E400BB680133BB60BB68002BC8DBFB7B1846C3
:1012F4001437BD4680BC7047D401002080B500AFD0
:10130400174B184A1A60164B4FF482725A60144BEA
:1013140000229A60124B0022DA60114B00221A61FB
:101324000F4B00225A610E4B4FF400729A610C4B22
:101334002822DA610A4B00221A62094B00225A62FF
:10134400074B00229A62064B0A22DA62044801F033
:10135400B5F80346002B01D0FFF780F800BF80BD2D
:10136400E00100200038004080B588B000AF78600C
:1013740007F1100300221A605A609A60DA607B68F1
:101384001B681C4A934231D11B4BDB691A4A43F454
:101394008043D361184BDB6903F48043FB60FB6833
:1013A400154B9B69144A43F008039361124B9B69E4
:1013B40003F00803BB60BB684FF420433B61022386
:1013C4007B610323FB6107F1100319460B4800F00E
:1013D40099FA4FF480433B6100237B610023BB6196
:1013E40007F110031946054800F08CFA00BF2037B6
:1013F400BD4680BD0038004000100240000C014092
:1014040080B500AF00224FF48051024800F025FC63
:1014140000BF80BD000C014080B500AF01224FF435
:101424008051024800F019FC00BF80BD000C01404F
:1014340080B500AF4FF48071054800F0F7FB034618
:10144400002B0CBF01230023DBB2184680BD00BF74
:101454000008014080B500AFFFF750FF00BF80BD1A
:1014640080B58CB002AF78603960FFF7C9FF002304
:101474007B6200233B620023FB770023BB773FE0C2
:10148400FFF7D6FF034683F00103DBB2002B3BD109
:10149400FB7F0133FB774FF0FF330122434944487C
:1014A40001F090F807F110024FF0FF33009302238C
:1014B40040493F4801F0C2F94FF0FF3301223E4951
:1014C4003B4801F07FF807F10C024FF0FF33009323
:1014D40002233849364801F0B1F93B7B1B027A7B81
:1014E40013431A467B6A13447B623B7C1B027A7C5F
:1014F40013431A463B6A13443B62BB7F0133BB77F9
:10150400BB7F0F2BBCD900E000BFFFF785FFFB7F3B
:101514000F2B01D8002345E07B6A1B09BB61BB6923
:10152400B3F5FA6F02D24FF4FA63BB61BB6947F2B9
:101534003052934202D947F23053BB613B6A1B09D4
:101544007B617B6940F2DB52934202D840F2DC5368
:101554007B617B6947F24812934202D947F24813F0
:101564007B61BA6913461B019B1A1B01A3F5EA238D
:10157400A3F54073114AA2FB03239B0B9AB27B6829
:101584001A807A6913469B0013449B01A3F5EA234E
:10159400A3F540730A4AA2FB03239B0B9AB23B6850
:1015A4001A80012318462837BD4680BDB43C000884
:1015B400E0010020B83C0008BC3C00081BECCB95C3
:1015C4004128859880B500AFFEF77EFEFFF7C2F88C
:1015D400FFF740FFFFF712FD00BF80BD80B500AFED
:1015E400084B1B68074A43F010031360032000F004
:1015F40047F9002000F008F8FEF736FF00231846EC
:1016040080BD00BF0020024080B582B000AF78608A
:10161400124B1A68124B1B7819464FF47A73B3FBBA
:10162400F1F3B2FBF3F3184600F05FF90346002B25
:1016340001D001230EE07B680F2B0AD800227968C1
:101644004FF0FF3000F027F9064A7B68136000234F
:1016540000E0012318460837BD4680BD0000002085
:10166400380000203400002080B400AF054B1B7804
:101674001A46054B1B681344034A136000BFBD465A
:1016840080BC7047380000208402002080B400AF82
:10169400024B1B681846BD4680BC7047840200207C
:1016A40080B584B000AF7860FFF7F0FFB8607B6866
:1016B400FB60FB68B3F1FF3F05D00A4B1B781A4669
:1016C400FB681344FB6000BFFFF7E0FF0246BB6802
:1016D400D31AFA689A42F7D800BF00BF1037BD4644
:1016E40080BD00BF3800002080B485B000AF7860B2
:1016F4007B6803F00703FB600C4BDB68BB60BA68D4
:101704004FF6FF031340BB60FB681A02BB68134328
:1017140043F0BF6343F40033BB60044ABB68D36047
:1017240000BF1437BD4680BC704700BF00ED00E029
:1017340080B400AF044BDB681B0A03F007031846B0
:10174400BD4680BC704700BF00ED00E080B483B0AC
:1017540000AF0346FB7197F90730002B0BDBFB79D5
:1017640003F01F02064997F907305B09012000FACC
:1017740002F241F8232000BF0C37BD4680BC7047FD
:1017840000E100E080B483B000AF03463960FB7130
:1017940097F90730002B0ADB3B68DAB20C4997F95A
:1017A40007301201D2B20B4483F800230AE03B68ED
:1017B400DAB20849FB7903F00F03043B1201D2B2F9
:1017C4000B441A7600BF0C37BD4680BC704700BF7F
:1017D40000E100E000ED00E080B489B000AFF86003
:1017E400B9607A60FB6803F00703FB61FB69C3F12E
:1017F4000703042B28BF0423BB61FB690433062BB6
:1018040002D9FB69033B00E000237B614FF0FF3208
:10181400BB6902FA03F3DA43BB681A407B699A4056
:101824004FF0FF317B6901FA03F3D9437B680B4026
:10183400134318462437BD4680BC704780B582B038
:1018440000AF78607B68013BB3F1807F01D3012353
:101854000FE00A4A7B68013B53600F214FF0FF30D1
:10186400FFF790FF054B00229A60044B07221A6091
:10187400002318460837BD4680BD00BF10E000E0D5
:1018840080B582B000AF78607868FFF72DFF00BFA5
:101894000837BD4680BD80B586B000AF0346B96049
:1018A4007A60FB7300237B61FFF742FF78617A68FB
:1018B400B9687869FFF790FF024697F90F3011462F
:1018C4001846FFF75FFF00BF1837BD4680BD80B5DF
:1018D40082B000AF0346FB7197F907301846FFF753
:1018E40035FF00BF0837BD4680BD80B582B000AF6C
:1018F40078607868FFF7A2FF034618460837BD46AC
:1019040080BD000080B48BB000AF786039600023E4
:101914007B6200233B6279E101227B6A02FA03F3D2
:10192400FB613B681B68FA691340BB61BA69FB69D8
:101934009A4240F068813B685B68A04A93425ED05B
:101944009E4A934275D89E4A934258D09C4A9342E9
:101954006FD89C4A934252D09A4A934269D89A4A81
:1019640093424CD0984A934263D8984A934246D0C3
:10197400964A93425DD8122B2AD8122B59D801A229
:1019840052F823F0031A0008DD190008EF190008C3
:10199400311A0008371A0008371A0008371A0008E5
:1019A400371A0008371A0008371A0008371A0008CF
:1019B400371A0008371A0008371A0008371A0008BF
:1019C400371A0008371A0008E5190008F919000841
:1019D4007F4A934213D02CE03B68DB683B6229E0EA
:1019E4003B68DB6804333B6224E03B68DB68083314
:1019F4003B621FE03B68DB680C333B621AE03B68E8
:101A04009B68002B02D104233B6213E03B689B6874
:101A1400012B05D108233B627B68FA691A6109E04E
:101A240008233B627B68FA695A6103E000233B6246
:101A340000E000BFBB69FF2B01D87B6801E07B6835
:101A440004337B61BB69FF2B02D87B6A9B0002E0F5
:101A54007B6A083B9B003B617B691A680F213B69E9
:101A640001FA03F3DB431A40396A3B6901FA03F3D1
:101A74001A437B691A603B685B6803F08053002B50
:101A840000F0C180534B9B69524A43F001039361B8
:101A9400504B9B6903F00103BB60BB684E4A7B6AF1
:101AA4009B08023352F82330FB607B6A03F0030384
:101AB4009B000F2202FA03F3DB43FA681340FB6036
:101AC4007B68464A93421FD07B68454A934219D0AB
:101AD4007B68444A934213D07B68434A93420DD0B7
:101AE4007B68424A934207D07B68414A934201D1C2
:101AF40005230AE0062308E0042306E0032304E0A8
:101B0400022302E0012300E000237A6A02F00302C8
:101B140092009340FA681343FB602F497B6A9B0849
:101B24000233FA6841F823203B685B6803F480338E
:101B3400002B06D02F4B1A682E49BB6913430B6048
:101B440006E02C4B1A68BB69DB432A4913400B603F
:101B54003B685B6803F40033002B06D0254B5A68BE
:101B64002449BB6913434B6006E0224B5A68BB69A6
:101B7400DB43204913404B603B685B6803F48013EC
:101B8400002B06D01B4B9A681A49BB6913438B6020
:101B940006E0184B9A68BB69DB43164913408B6017
:101BA4003B685B6803F40013002B25D0114BDA6803
:101BB4001049BB691343CB6025E000BF000032101D
:101BC400000031100000221000002110000012104B
:101BD4000000111000100240000001400008014004
:101BE400000C0140001001400014014000180140A5
:101BF400001C0140000401400B4BDA68BB69DB4365
:101C040009491340CB607B6A01337B623B681A68E5
:101C14007B6A22FA03F3002B7FF47EAE00BF00BF81
:101C24002C37BD4680BC70470004014080B485B0A9
:101C340000AF78600B467B807B689A687B88134092
:101C4400002B02D00123FB7301E00023FB73FB7B19
:101C540018461437BD4680BC704780B483B000AFCB
:101C640078600B467B8013467B707B78002B03D017
:101C74007A887B681A6103E07B881A047B681A619E
:101C840000BF0C37BD4680BC704780B485B000AF40
:101C940078600B467B807B68DB68FB607A88FB6836
:101CA40013401A04FB68D9437B880B401A437B68B2
:101CB4001A6100BF1437BD4680BC704780B582B03E
:101CC40000AF0346FB80084B5A69FB881340002B86
:101CD40006D0054AFB885361FB881846FEF7B2FA22
:101CE40000BF0837BD4680BD0004014080B586B002
:101CF40000AF78607B68002B01D101236CE27B6824
:101D04001B6803F00103002B00F08780924B5B6893
:101D140003F00C03042B0CD08F4B5B6803F00C0313
:101D2400082B12D18C4B5B6803F48033B3F5803FEE
:101D34000BD1894B1B6803F40033002B6CD07B68F8
:101D44005B68002B68D1012346E27B685B68B3F5CE
:101D5400803F06D1804B1B687F4A43F48033136075
:101D64002EE07B685B68002B0CD17B4B1B687A4AA6
:101D740023F480331360784B1B68774A23F4802361
:101D840013601DE07B685B68B3F5A02F0CD1724B28
:101D94001B68714A43F4802313606F4B1B686E4ABF
:101DA40043F4803313600BE06B4B1B686A4A23F4E3
:101DB40080331360684B1B68674A23F480231360E5
:101DC4007B685B68002B13D0FFF760FC386108E088
:101DD400FFF75CFC02463B69D31A642B01D9032349
:101DE400FAE15D4B1B6803F40033002BF0D014E0E0
:101DF400FFF74CFC386108E0FFF748FC02463B69FA
:101E0400D31A642B01D90323E6E1534B1B6803F473
:101E14000033002BF0D100E000BF7B681B6803F0A7
:101E24000203002B63D04C4B5B6803F00C03002BC4
:101E34000BD0494B5B6803F00C03082B1CD1464BB9
:101E44005B6803F48033002B16D1434B1B6803F00B
:101E54000203002B05D07B681B69012B01D00123F1
:101E6400BAE13D4B1B6823F0F8027B685B69DB0039
:101E7400394913430B603AE07B681B69002B20D07F
:101E8400364B01221A60FFF701FC386108E0FFF7C6
:101E9400FDFB02463B69D31A022B01D903239BE1C4
:101EA4002D4B1B6803F00203002BF0D02A4B1B6858
:101EB40023F0F8027B685B69DB00274913430B605E
:101EC40015E0264B00221A60FFF7E0FB386108E0BA
:101ED400FFF7DCFB02463B69D31A022B01D903232B
:101EE4007AE11D4B1B6803F00203002BF0D17B68E1
:101EF4001B6803F00803002B3AD07B689B69002B16
:101F040019D0174B01221A60FFF7C0FB386108E0B3
:101F1400FFF7BCFB02463B69D31A022B01D903230A
:101F24005AE10D4B5B6A03F00203002BF0D0012051
:101F340000F0A6FA1CE00A4B00221A60FFF7A6FB89
:101F440038610FE0FFF7A2FB02463B69D31A022B6C
:101F540008D9032340E100BF0010024000004242C0
:101F6400800442429E4B5B6A03F00203002BE9D1DA
:101F74007B681B6803F00403002B00F0A680002399
:101F8400FB75974BDB6903F08053002B0DD1944B09
:101F9400DB69934A43F08053D361914BDB6903F0CF
:101FA4008053BB60BB680123FB758E4B1B6803F435
:101FB4008073002B18D18B4B1B688A4A43F48073BF
:101FC4001360FFF763FB386108E0FFF75FFB02462D
:101FD4003B69D31A642B01D90323FDE0814B1B68B1
:101FE40003F48073002BF0D07B68DB68012B06D1EF
:101FF4007B4B1B6A7A4A43F0010313622DE07B6832
:10200400DB68002B0CD1764B1B6A754A23F0010365
:102014001362734B1B6A724A23F0040313621CE0BD
:102024007B68DB68052B0CD16D4B1B6A6C4A43F053
:10203400040313626A4B1B6A694A43F00103136287
:102044000BE0674B1B6A664A23F001031362644B7F
:102054001B6A634A23F0040313627B68DB68002B6A
:1020640015D0FFF713FB38610AE0FFF70FFB0246B8
:102074003B69D31A41F28832934201D90323ABE07E
:10208400574B1B6A03F00203002BEED014E0FFF75A
:10209400FDFA38610AE0FFF7F9FA02463B69D31A00
:1020A40041F28832934201D9032395E04C4B1B6AD9
:1020B40003F00203002BEED1FB7D012B05D1484B2D
:1020C400DB69474A23F08053D3617B68DB69002BCB
:1020D40000F08180424B5B6803F00C03082B61D055
:1020E4007B68DB69022B46D13F4B00221A60FFF765
:1020F400CDFA386108E0FFF7C9FA02463B69D31A02
:10210400022B01D9032367E0354B1B6803F00073EE
:10211400002BF0D17B681B6AB3F5803F08D1304BAC
:102124005B6823F400327B689B682D4913434B6042
:102134002B4B5B6823F474127B68196A7B685B6AB7
:102144000B43274913434B60274B01221A60FFF7C7
:102154009DFA386108E0FFF799FA02463B69D31A01
:10216400022B01D9032337E01D4B1B6803F00073D6
:10217400002BF0D02FE01C4B00221A60FFF786FAE8
:10218400386108E0FFF782FA02463B69D31A022B52
:1021940001D9032320E0124B1B6803F00073002BCA
:1021A400F0D118E07B68DB69012B01D1012313E036
:1021B4000B4B5B68FB60FB6803F480327B681B6A33
:1021C4009A4206D1FB6803F470127B685B6A9A42F8
:1021D40001D0012300E0002318461837BD4680BD16
:1021E40000100240007000406000424280B584B09C
:1021F40000AF786039607B68002B01D10123D0E007
:102204006A4B1B6803F007033A689A4210D9674B7C
:102214001B6823F0070265493B6813430B60634B5B
:102224001B6803F007033A689A4201D00123B8E01F
:102234007B681B6803F00203002B20D07B681B68BB
:1022440003F00403002B05D0594B5B68584A43F450
:10225400E06353607B681B6803F00803002B05D020
:10226400534B5B68524A43F460535360504B5B6872
:1022740023F0F0027B689B684D4913434B607B68F5
:102284001B6803F00103002B40D07B685B68012BC3
:1022940007D1474B1B6803F40033002B15D10123EE
:1022A4007FE07B685B68022B07D1414B1B6803F01E
:1022B4000073002B09D1012373E03D4B1B6803F02D
:1022C4000203002B01D101236BE0394B5B6823F03F
:1022D40003027B685B68364913434B60FFF7D6F90A
:1022E400F8600AE0FFF7D2F90246FB68D31A41F21C
:1022F4008832934201D9032353E02D4B5B6803F0EA
:102304000C027B685B689B009A42EBD1274B1B68ED
:1023140003F007033A689A4210D2244B1B6823F057
:10232400070222493B6813430B60204B1B6803F0F0
:1023340007033A689A4201D0012332E07B681B68A4
:1023440003F00403002B08D0194B5B6823F4E0620C
:102354007B68DB68164913434B607B681B6803F09A
:102364000803002B09D0124B5B6823F460527B688E
:102374001B69DB000E4913434B6000F021F8024651
:102384000B4B5B681B0903F00F030A49CB5C22FA71
:1023940003F3094A1360094B1B681846FFF734F925
:1023A400002318461037BD4680BD00BF0020024000
:1023B40000100240303800080000002034000020E3
:1023C40090B48AB000AF2A4B3C1D0FCB84E80F00B9
:1023D40040F201233B800023FB610023BB61002307
:1023E4007B6200237B6100233B62224B5B68FB61C1
:1023F400FB6903F00C03042B02D0082B03D02DE05F
:102404001D4B3B622DE0FB699B0C03F00F0307F1AE
:102414002802134413F8243C7B61FB6903F48033E2
:10242400002B13D0134B5B685B0C03F0010307F123
:102434002802134413F8283CBB617B690E4A02FB53
:1024440003F2BB69B2FBF3F37B6204E07B690B4AE2
:1024540002FB03F37B627B6A3B6202E0064B3B6256
:1024640000BF3B6A18462837BD4690BC704700BF82
:10247400203800080010024000127A0000093D00D4
:1024840080B485B000AF78600A4B1B680A4AA2FB8F
:1024940003235B0A7A6802FB03F3FB6000BFFB685B
:1024A4005A1EFA60002BF9D100BF00BF1437BD4695
:1024B40080BC704700000020D34D621080B582B00C
:1024C40000AF78607B68002B01D1012376E07B6844
:1024D4005B6A002B08D17B685B68B3F5827F09D007
:1024E4007B680022DA6105E07B6800221A617B6860
:1024F40000225A617B6800229A627B6893F851300B
:10250400DBB2002B06D17B68002283F85020786868
:10251400FEF72AFF7B68022283F851207B681B6840
:102524001A687B681B6822F040021A607B685B684B
:1025340003F482727B689B6803F404431A437B6848
:10254400DB6803F400631A437B681B6903F002032E
:102554001A437B685B6903F001031A437B689B6938
:1025640003F400731A437B68DB6903F038031A43EE
:102574007B681B6A03F0800342EA03017B689B6A61
:1025840003F400527B681B680A431A607B689B69EA
:102594001A0C7B681B6802F004025A607B681B6893
:1025A400DA697B681B6822F40062DA617B680022C6
:1025B4005A657B68012283F85120002318460837A6
:1025C400BD4680BD80B588B000AFF860B9603B609F
:1025D4001346FB800023FB77FB6893F85030012BF4
:1025E40001D1022326E1FB68012283F85020FFF782
:1025F4004DF8B861FB88FB82FB6893F85130DBB27D
:10260400012B02D00223FB770BE1BB68002B02D025
:10261400FB88002B02D10123FB7702E1FB68032234
:1026240083F85120FB6800225A65FB68BA681A6374
:10263400FB68FA889A86FB68FA88DA86FB680022C7
:102644009A63FB6800229A87FB680022DA87FB689A
:1026540000225A64FB6800221A64FB689B68B3F585
:10266400004F0FD1FB681B681A68FB681B6822F0D7
:1026740040021A60FB681B681A68FB681B6842F416
:1026840080421A60FB681B681B6803F04003402B00
:1026940007D0FB681B681A68FB681B6842F040029D
:1026A4001A60FB68DB68B3F5006F4BD1FB685B68AD
:1026B400002B02D0FB8A012B3ED1FB681B6B1A88CE
:1026C400FB681B68DA60FB681B6B9A1CFB681A6367
:1026D400FB68DB8E9BB2013B9AB2FB68DA862BE087
:1026E400FB681B689B6803F00203022B12D1FB6892
:1026F4001B6B1A88FB681B68DA60FB681B6B9A1CEF
:10270400FB681A63FB68DB8E9BB2013B9AB2FB68E1
:10271400DA8611E0FEF7BAFF0246BB69D31A3A68BB
:102724009A4203D83B68B3F1FF3F02D13B68002BC8
:1027340002D10323FB7774E0FB68DB8E9BB2002B92
:10274400CED14CE0FB685B68002B02D0FB8A012BE6
:1027540040D1FB681A6BFB681B680C3312781A7043
:10276400FB681B6B5A1CFB681A63FB68DB8E9BB20D
:10277400013B9AB2FB68DA862CE0FB681B689B6815
:1027840003F00203022B13D1FB681A6BFB681B686E
:102794000C3312781A70FB681B6B5A1CFB681A63A3
:1027A400FB68DB8E9BB2013B9AB2FB68DA8611E0D0
:1027B400FEF76CFF0246BB69D31A3A689A4203D803
:1027C4003B68B3F1FF3F02D13B68002B02D10323E6
:1027D400FB7726E0FB68DB8E9BB2002BCDD1BA6978
:1027E4003968F86800F054FA0346002B02D0FB68FD
:1027F40020225A65FB689B68002B0AD100233B61A9
:10280400FB681B68DB683B61FB681B689B683B617A
:102814003B69FB685B6D002B02D00123FB7700E072
:1028240000BFFB68012283F85120FB68002283F873
:102834005020FB7F18462037BD4680BD80B58CB044
:1028440000AFF860B9607A607B800123FB620023EB
:1028540087F82B30FB6893F85030012B01D1022309
:102864008AE1FB68012283F85020FEF70FFF7862AB
:10287400FB6893F8513087F82330FB685B68FB6191
:102884007B887B8397F82330012B0FD0FB69B3F54A
:10289400827F07D1FB689B68002B03D197F8233014
:1028A400042B03D0022387F82B305BE1BB68002B99
:1028B40005D07B68002B02D07B88002B03D1012339
:1028C40087F82B304EE1FB6893F85130DBB2042BD0
:1028D40003D0FB68052283F85120FB6800225A6567
:1028E400FB687A689A63FB687A88DA87FB687A8877
:1028F4009A87FB68BA681A63FB687A88DA86FB6889
:102904007A889A86FB6800221A64FB6800225A645B
:10291400FB681B681B6803F04003402B07D0FB686F
:102924001B681A68FB681B6842F040021A60FB6867
:10293400DB68B3F5006F78D1FB685B68002B02D0CD
:102944007B8B012B66D1FB681B6B1A88FB681B68A9
:10295400DA60FB681B6B9A1CFB681A63FB68DB8EEE
:102964009BB2013B9AB2FB68DA8653E0FB681B68B2
:102974009B6803F00203022B1BD1FB68DB8E9BB226
:10298400002B16D0FB6A012B13D1FB681B6B1A8832
:10299400FB681B68DA60FB681B6B9A1CFB681A6394
:1029A400FB68DB8E9BB2013B9AB2FB68DA8600239C
:1029B400FB62FB681B689B6803F00103012B19D1C0
:1029C400FB68DB8F9BB2002B14D0FB681B68DA68B2
:1029D400FB689B6B92B21A80FB689B6B9A1CFB682A
:1029E4009A63FB68DB8F9BB2013B9AB2FB68DA8780
:1029F4000123FB62FEF74AFE02467B6AD31ABA6BD6
:102A04009A4207D8BB6BB3F1FF3F03D0032387F887
:102A14002B30A7E0FB68DB8E9BB2002BA6D1FB68B2
:102A2400DB8F9BB2002BA1D17CE0FB685B68002BA1
:102A340002D07B8B012B6BD1FB681A6BFB681B6884
:102A44000C3312781A70FB681B6B5A1CFB681A63F0
:102A5400FB68DB8E9BB2013B9AB2FB68DA8657E0D7
:102A6400FB681B689B6803F00203022B1CD1FB6804
:102A7400DB8E9BB2002B17D0FB6A012B14D1FB68B1
:102A84001A6BFB681B680C3312781A70FB681B6B9B
:102A94005A1CFB681A63FB68DB8E9BB2013B9AB23B
:102AA400FB68DA860023FB62FB681B689B6803F003
:102AB4000103012B19D1FB68DB8F9BB2002B14D0CF
:102AC400FB681B68DA68FB689B6BD2B21A70FB6800
:102AD4009B6B5A1CFB689A63FB68DB8F9BB2013BC0
:102AE4009AB2FB68DA870123FB62FEF7CFFD024648
:102AF4007B6AD31ABA6B9A4203D8BB6BB3F1FF3F1C
:102B040002D1BB6B002B03D1032387F82B3029E0C0
:102B1400FB68DB8E9BB2002BA2D1FB68DB8F9BB2E0
:102B2400002B9DD17A6AB96BF86800F0B1F80346BE
:102B3400002B06D0012387F82B30FB6820225A652E
:102B440010E0FB689B68002B0BD100237B61FB68C2
:102B54001B68DB687B61FB681B689B687B617B6926
:102B640000E000BFFB68012283F85120FB680022CB
:102B740083F8502097F82B3018463037BD4680BD77
:102B840080B588B000AFF860B9603B601346FB7154
:102B9400FEF77CFD0246BB6A9B1A3A681344FB614C
:102BA400FEF774FDB861394B1B685B011B0DFA69B4
:102BB40002FB03F37B6154E03B68B3F1FF3F50D069
:102BC400FEF764FD0246BB69D31AFA699A4202D938
:102BD400FB69002B3DD1FB681B685A68FB681B68C6
:102BE40022F0E0025A60FB685B68B3F5827F11D182
:102BF400FB689B68B3F5004F04D0FB689B68B3F592
:102C0400806F07D1FB681B681A68FB681B6822F099
:102C140040021A60FB689B6AB3F5005F0FD1FB6842
:102C24001B681A68FB681B6822F400521A60FB6870
:102C34001B681A68FB681B6842F400521A60FB6840
:102C4400012283F85120FB68002283F850200323DB
:102C540017E07B69002B01D10023FB617B69013BF9
:102C64007B61FB681B689A68BB681340BA689A4228
:102C74000CBF01230023DBB21A46FB799A429BD195
:102C8400002318462037BD4680BD00BF0000002049
:102C940080B586B002AFF860B9607A607B68009353
:102CA400BB6800228021F868FFF76AFF0346002B07
:102CB40007D0FB685B6D43F02002FB685A65032371
:102CC40000E0002318461037BD4680BD80B584B0AF
:102CD40000AFF860B9607A60FB68002B04D0FB6831
:102CE4009B69B3F5807F01D1012338E0FB6893F839
:102CF4004130DBB2002B06D1FB68002283F8402070
:102D0400F868FDF71DFDFB681A68FB68083319466F
:102D1400104600F029F8FB681868FB689B681A469F
:102D2400B96800F08BF8FB685868FB689A68FB6820
:102D34001B6B796800F0B6F8FB681B68FA68926848
:102D440053F82210FB681B68FA68926841F001018D
:102D540043F82210FB68012283F84120002318461F
:102D64001037BD4680BD000080B487B000AF7860E6
:102D740039603B681A687B6853F822303A681268F5
:102D840023F001017B6843F822103B689B68082B01
:102D940002D140237B6101E000237B613B685A68D8
:102DA4007B691A433B689B681A433B68DB681A4398
:102DB4003B681B691A433B685B691A433B68DB69E0
:102DC4001A433B681B6A1A433B685B6A1A433B68B5
:102DD4009B6A1A433B68DB6A1A433B681B6B1343C9
:102DE4003B613B689B693A6913433B613B685B6B9E
:102DF4003A6913433B61104BFB60FB6843F4806307
:102E0400FB60FB6843F4E023FB603B681A687B6863
:102E140053F82220FB68DB4302EA03013B681A688B
:102E24003B6919437B6843F82210002318461C377A
:102E3400BD4680BC704700BF7FFB080080B485B0EE
:102E440000AFF860B9607A607B685A1CFB6853F87D
:102E5400223003F04041BB681A68BB685B681B0101
:102E64001A43BB689B681B021A43BB68DB681B04DC
:102E74001A43BB681B69013B1B051A43BB685B69AA
:102E8400023B1B061A43BB689B6913437A680132F1
:102E94001943FB6843F82210002318461437BD4633
:102EA40080BC704780B485B000AFF860B9607A60C8
:102EB4003B603B68B3F5804F1DD1FB687A6853F8DB
:102EC4002220134B1340BA681168BA685268120181
:102ED4001143BA68926812021143BA6892691143A5
:102EE400BA68D26812040A4343EA0201FB687A68AA
:102EF40043F8221005E0FB687A686FF0704143F8EC
:102F04002210002318461437BD4680BC704700BF0A
:102F14000000F0CF80B500AFFEF754FBFDF780F959
:102F2400FDF784F90023184680BD0000014B1868A2
:102F3400704700BF3C00002070B500260C4D0D4CBE
:102F4400641BA410A64209D100F05CFC00260A4DC3
:102F54000A4C641BA410A64205D170BD55F8043B6D
:102F640098470136EEE755F8043B98470136F2E7F7
:102F7400F03C0008F03C0008F03C0008F43C000879
:102F840003460244934200D1704703F8011BF9E75A
:102F940038B50546002943D051F8043C0C1F002BDA
:102FA400B8BFE41800F0CAF81E4A1368104633B9D3
:102FB400636014602846BDE8384000F0C5B8A342F9
:102FC4000AD921686218934201BF1A685B685218D3
:102FD400226063600460EDE71A465B680BB1A342AC
:102FE400FAD911685018A0420BD120680144501836
:102FF40083421160DED118685B680144116053603C
:10300400D8E702D90C232B60D4E7206821188B421F
:1030140001BF19685B680918216063605460C9E7DF
:1030240038BD00BFD8010020F8B5CD1C25F003053C
:1030340008350C2D38BF0C25002D064601DBA942AE
:1030440003D90C2333600020F8BD00F077F8214940
:103054000A6814469CB9204F3B6823B92146304680
:1030640000F03CF838602946304600F037F8431C3D
:1030740023D10C233046336000F066F8E3E723687D
:103084005B1B17D40B2B03D923601C44256004E07D
:103094006368A2420CBF0B605360304600F054F8E2
:1030A40004F10B00231D20F00700C21ACCD01B1A18
:1030B400A350C9E722466468CCE7C41C24F0030487
:1030C400A042E3D0211A304600F008F80130DDD1E7
:1030D400CFE700BFD8010020DC01002038B5002371
:1030E400054D044608462B60FDF720FA431C02D127
:1030F4002B6803B1236038BD8802002000B59BB063
:10310400009104916FF000410591029105490391EA
:10311400694600F07BF80022009B1A701BB05DF832
:1031240004FB00BF0802FFFF13460A46014602489B
:103134000068FFF7E3BF00BF3C000020014800F037
:10314400FBBA00BF90020020014800F0F6BA00BFAD
:10315400900200202DE9F0478E6882469E420C467C
:1031640090461F4638D88A8912F4906F32D0256869
:1031740009690133A5EB010965694B4405EB450574
:1031840005EBD5756D109D4238BF1D46530531D5ED
:103194002946FFF749FF064650B90C234FF0FF308C
:1031A400CAF80030A38943F04003A381BDE8F08747
:1031B4004A46216900F0D0FAA38923F4906343F0CE
:1031C4008003A38126614E4426603E466561A5EBDB
:1031D4000905A560BE4200D93E46324641462068F4
:1031E40000F0C8FAA36822689B1B32440020A36045
:1031F4002260DBE72A4600F0D7FA06460028E1D130
:1032040050462169FFF7C4FEC7E700002DE9F04FDF
:1032140098468B8907461B060D4614469DB00ED56D
:103224000B6963B94021FFF7FFFE2860286120B9CC
:103234000C233B604FF0FF30D1E040236B6100234F
:10324400099320238DF8293030234FF00109CDF85C
:103254000C80DFF8A4818DF82A3023469A4613F8AF
:10326400012B0AB1252AF9D1BAEB040B0BD05B462A
:10327400224629463846FFF76DFF013000F0AA8048
:10328400099A5A4409929AF80030002B00F0A2805F
:1032940000234FF0FF32CDE905230AF1010A04931C
:1032A40007938DF853301A935446052214F8011BE2
:1032B400514800F043FA049AD8B9D00644BF2023F9
:1032C4008DF85330110744BF2B238DF853309AF8EF
:1032D40000302A2B15D0544600204FF00A0C079AD0
:1032E400214611F8013B303B092B4ED9B0B107926E
:1032F40014E0A0EB080309FA03F31343A246049372
:10330400D2E7039B191D1B680391002BBBBF5B42D3
:1033140042F0020207930793B8BF049223782E2B3E
:103324000CD163782A2B35D1039B02341A1D1B68F8
:103334000392002BB8BF4FF0FF330593DFF8C8A00A
:1033440003225046217800F0F9F940B14023A0EB64
:103354000A0003FA00F0049B01340343049314F8B5
:10336400011B062225488DF8281000F0E7F90028F3
:1033740038D0234B1BBB039B073323F007030833CD
:103384000393099B3344099367E70C4601200CFB24
:103394000232A5E700234FF00A0C194601340593C5
:1033A400204610F8012B303A092A03D9002BC5D046
:1033B4000591C3E7044601230CFB0121F0E703ABAD
:1033C40000932A4638460F4B04A9AFF30080421CF1
:1033D4000646D6D1AB895B063FF52CAF09981DB0E4
:1033E400BDE8F08F03AB00932A463846054B04A989
:1033F40000F07CF8EBE700BFBD3C0008C73C0008C8
:103404000000000059310008C33C00082DE9F047D2
:10341400164699468A680B6907469342B8BF134615
:10342400336091F843200C46DDF820800AB1013363
:1034340033602368990642BF3368023333602568DA
:1034440015F0060506D104F1190AE36832689B1ADF
:10345400AB4228DC94F84320131E226818BF0123D2
:1034640092062DD44946384604F14302C047013040
:1034740020D02368E56803F00603042B18BF002559
:1034840032684FF00006A36808BFAD1A226908BF6E
:1034940025EAE5759342C4BF9B1AED181A34B54268
:1034A4001AD1002008E00123524649463846C04755
:1034B400013003D14FF0FF30BDE8F0870135C4E798
:1034C4003020E11881F843005A1C94F84510224436
:1034D400023382F84310C5E70123224649463846A1
:1034E400C0470130E6D00136D9E700002DE9FF4797
:1034F4000C46277E9146782F80469A460C9904F113
:10350400430207D8622F0AD8002F00F0D980582F21
:1035140000F0A48004F1420684F842703AE0A7F176
:103524006303152BF6D801A050F823F08935000861
:103534009D350008193500081935000819350008AB
:10354400193500089D35000819350008193500089B
:103554001935000819350008AB360008CD350008C8
:103564008D3600081935000819350008CD360008D5
:1035740019350008CD35000819350008193500083B
:10358400953600080B6804F142061A1D1B680A6090
:1035940084F842300123A4E0256808682E0600F16F
:1035A40004030AD505680B60002D03DA2D236D4250
:1035B40084F843300A235E4819E015F0400F05688B
:1035C4000B6018BF2DB2EFE70B682568181D086063
:1035D400280601D51D6802E06906FBD51D886F2FFA
:1035E4000CBF08230A235248002184F8431066685C
:1035F400002EA8BF2168A660A4BF21F004012160A9
:103604000DB9002E4DD01646B5FBF3F103FB11574F
:10361400C75D06F8017D2F46BB420D46F4D9082B41
:103624000BD12368DF0708D5236961689942DEBF9F
:10363400302306F8013C06F1FF36921B22614B460B
:1036440021464046CDF800A003AAFFF7DFFE013073
:103654004CD14FF0FF3004B0BDE8F087344884F813
:1036640045700E68236856F8045B1F060E6014D577
:10367400D90744BF43F0200323601DB9236823F016
:10368400200323601023AFE7236843F02003236063
:103694007823284884F84530E3E75E0648BFADB296
:1036A400E6E71646BBE70B6826681D1D60690D60DA
:1036B40035061B6801D5186002E07106FBD5188039
:1036C400002316462361BAE70B681A1D0A601E68B8
:1036D40000213046626800F031F808B1801B606058
:1036E40063682361002384F84330A8E732464946DF
:1036F40040462369D0470130ABD023689B0713D4DD
:10370400E068039B9842B8BF1846A4E701233246F9
:1037140049464046D04701309BD00135E3680399C0
:103724005B1AAB42F2DCEBE7002504F11906F5E77E
:10373400CE3C0008DF3C000870477047034610B5D4
:10374400C9B202449342184601D1002003E0047830
:1037540001338C42F6D110BD0A44914200F1FF338B
:1037640000D1704710B511F8014B914203F8014F95
:10377400F9D110BD884210B501EB020402D984428C
:10378400234607D8431EA14208D011F8012B03F8A1
:10379400012FF8E7014602448A4200D110BD13F814
:1037A400014D02F8014DF7E7F8B5074614460E46F9
:1037B40021B91146BDE8F840FFF736BC22B9FFF73E
:1037C400E7FB25462846F8BD00F014F8A0420FD2C6
:1037D40021463846FFF728FC05460028F2D031463A
:1037E4002246FFF7B9FF31463846FFF7D1FBE9E738
:1037F4003546E7E751F8043C181F002BBCBF0B58B3
:10380400C0187047F8B500BFF8BC08BC9E467047A6
:0C381400F8B500BFF8BC08BC9E46704729
:1038200002030405060708090A0B0C0D0E0F101001
:103830000000000000000000010203040607080960
:103840000000000000000000000000000010101048
:103850001010000010000000006C4848000000003C
:1038600000000000001414287C287C285050000020
:1038700000103840403848701010000000205020E0
:103880000C700814080000000000001820205448A4
:1038900034000000001010101000000000000000B4
:1038A0000008081010101010100808000020201048
:1038B000101010101020200000107C10282800008C
:1038C000000000000000101010FE1010100000009A
:1038D0000000000000000018103020000000000070
:1038E000007C00000000000000000000000000302C
:1038F00030000000000404080810102020400000E0
:10390000003844444444444438000000003010105F
:10391000101010107C0000000038440408102044EF
:103920007C000000003844041804044438000000FF
:10393000000C141424447E040E000000003C2020DF
:103940003804044438000000001C204078444444FB
:1039500038000000007C4404080808101000000033
:10396000003844443844444438000000003844449B
:10397000443C0408700000000000003030000030BB
:10398000300000000000001818000018302000006F
:1039900000000C10608060100C00000000000000AF
:1039A0007C007C00000000000000C02018041820EB
:1039B000C0000000000018240408100030000000BF
:1039C0003844444C54544C404438000000301028D3
:1039D00028287C44EE00000000F844447844444425
:1039E000F8000000003C44404040404438000000E3
:1039F00000F0484444444448F000000000FC4450B7
:103A000070504044FC000000007E2228382820200E
:103A100070000000003C4440404E44443800000028
:103A200000EE44447C444444EE000000007C10104E
:103A3000101010107C000000003C0808084848489E
:103A40003000000000EE444850704844E60000009A
:103A500000702020202024247C00000000EE6C6CEC
:103A600054544444EE00000000EE64645454544C3A
:103A7000EC00000000384444444444443800000052
:103A800000782424243820207000000000384444AA
:103A900044444444381C000000F8444444784844FA
:103AA000E200000000344C40380404645800000078
:103AB00000FE9210101010103800000000EE444478
:103AC000444444443800000000EE444428282810B0
:103AD0001000000000EE44445454545428000000E8
:103AE00000C6442810102844C600000000EE4428F8
:103AF0002810101038000000007C440810102044EA
:103B00007C000000003820202020202020203800C9
:103B10000040202020101008080800000038080885
:103B200008080808080838000010102844000000A1
:103B3000000000000000000000000000000000FE87
:103B40000010080000000000000000000000003825
:103B5000443C44443E00000000C040586444444497
:103B6000F80000000000003C4440404438000000E1
:103B7000000C04344C4444443E0000000000003873
:103B8000447C40403C000000001C207C2020202081
:103B90007C000000000000364C4444443C043800E3
:103BA00000C0405864444444EE000000001000701F
:103BB000101010107C0000000010007808080808A1
:103BC0000808700000C0405C48705048DC000000ED
:103BD00000301010101010107C000000000000E8F1
:103BE00054545454FE000000000000D8644444447F
:103BF000EE00000000000038444444443800000057
:103C0000000000D8644444447840E00000000036DE
:103C10004C4444443C040E000000006C3020202042
:103C20007C0000000000003C4438044478000000A0
:103C30000000207C202020221C000000000000CC7E
:103C40004444444C36000000000000EE4444282860
:103C500010000000000000EE4454545428000000FE
:103C6000000000CC48303048CC000000000000EEDE
:103C700044242818101078000000007C48102044CC
:103C80007C00000000081010101020101010080018
:103C90000010101010101010101000000020101054
:103CA0001010081010102000000000000024580020
:103CB000000000009000000000000000D0232D3024
:103CC0002B2000686C4C0065666745464700303124
:103CD0003233343536373839414243444546003073
:103CE00031323334353637383961626364656600A2
:043CF00009020008BD
:043CF400E5010008DE
:103CF8000024F4004038000807000C00F0004001E0
:103D080000010100E0FF00000000000004000020A6
:103D180001000000001001404000010000100140B7
:103D28008000010010000000010000004000002099
:103D3800000000000000000000000000000000007B
:103D4800000000000000000000000000000000006B
:103D5800000000000000000000000000000000005B
:103D6800000000000000000000000000000000004B
:103D7800000000000000000000000000000000003B
:103D8800000000000000000000000000000000002B
:04000005080005A941
:00000001FF
